{
  "contractName": "ArrayExample",
  "abi": [
    {
      "constant": true,
      "inputs": [],
      "name": "getarraylength",
      "outputs": [
        {
          "name": "",
          "type": "uint256"
        }
      ],
      "payable": false,
      "stateMutability": "view",
      "type": "function"
    },
    {
      "constant": false,
      "inputs": [
        {
          "name": "element",
          "type": "uint256"
        }
      ],
      "name": "setarray",
      "outputs": [],
      "payable": false,
      "stateMutability": "nonpayable",
      "type": "function"
    },
    {
      "constant": false,
      "inputs": [],
      "name": "removelastelement",
      "outputs": [],
      "payable": false,
      "stateMutability": "nonpayable",
      "type": "function"
    },
    {
      "constant": false,
      "inputs": [
        {
          "name": "index",
          "type": "uint256"
        }
      ],
      "name": "delvalue",
      "outputs": [],
      "payable": false,
      "stateMutability": "nonpayable",
      "type": "function"
    }
  ],
  "bytecode": "0x60806040526040518060600160405280600160ff168152602001600260ff168152602001600360ff16815250600090600361003b92919061004e565b5034801561004857600080fd5b506100c5565b82805482825590600052602060002090810192821561008f579160200282015b8281111561008e578251829060ff1690559160200191906001019061006e565b5b50905061009c91906100a0565b5090565b6100c291905b808211156100be5760008160009055506001016100a6565b5090565b90565b6101f6806100d46000396000f3fe608060405234801561001057600080fd5b506004361061004c5760003560e01c8063080df14c146100515780633e11376e1461007f5780634b02b208146100895780635801afa5146100b7575b600080fd5b61007d6004803603602081101561006757600080fd5b81019080803590602001909291905050506100d5565b005b610087610104565b005b6100b56004803603602081101561009f57600080fd5b8101908080359060200190929190505050610127565b005b6100bf61016d565b6040518082815260200191505060405180910390f35b600081908060018154018082558091505090600182039060005260206000200160009091929091909150555050565b600080548061010f57fe5b60019003818190600052602060002001600090559055565b60008054905081111561013657fe5b6000818154811061014357fe5b906000526020600020016000905560016000818180549050039150816101699190610179565b5050565b60008080549050905090565b8154818355818111156101a05781836000526020600020918201910161019f91906101a5565b5b505050565b6101c791905b808211156101c35760008160009055506001016101ab565b5090565b9056fea165627a7a723058203a77188166262a9791641508f0b0aca2f01cf2933a1b8a916eb364cb0bbab1790029",
  "source": "pragma solidity ^0.5.0;\n\ncontract ArrayExample{\n    \n    uint[] arr1 = [1,2,3];\n    \n    function getarraylength() public view returns(uint){\n        \n        return arr1.length;\n    }\n    \n    function setarray(uint element) public{\n        arr1.push(element);\n    }\n    \n    function removelastelement() public{\n     \n        arr1.pop();\n    }\n    \n    function delvalue(uint index) public{\n        assert(index<=arr1.length);\n        delete arr1[index];\n        arr1.length -= 1;\n    }\n}",
  "sourcePath": "/home/noopur/Blockchain/11Sept/My_token/contracts/ArrayExample.sol",
  "compiler": {
    "name": "solc",
    "version": "0.5.8+commit.23d335f2.Emscripten.clang"
  },
  "schemaVersion": "3.0.13",
  "updatedAt": "2019-09-11T11:13:33.041Z",
  "devdoc": {
    "methods": {}
  },
  "userdoc": {
    "methods": {}
  }
}