{
  "contractName": "Bank",
  "abi": [
    {
      "inputs": [],
      "payable": false,
      "stateMutability": "nonpayable",
      "type": "constructor"
    },
    {
      "constant": false,
      "inputs": [
        {
          "name": "_addr",
          "type": "address"
        },
        {
          "name": "_amt",
          "type": "uint256"
        }
      ],
      "name": "deposit",
      "outputs": [],
      "payable": false,
      "stateMutability": "nonpayable",
      "type": "function"
    },
    {
      "constant": true,
      "inputs": [
        {
          "name": "_addr",
          "type": "address"
        }
      ],
      "name": "displayBalance",
      "outputs": [
        {
          "name": "",
          "type": "uint256"
        }
      ],
      "payable": false,
      "stateMutability": "view",
      "type": "function"
    },
    {
      "constant": false,
      "inputs": [
        {
          "name": "_addrOfrec",
          "type": "address"
        },
        {
          "name": "_amt",
          "type": "uint256"
        }
      ],
      "name": "sendbal",
      "outputs": [],
      "payable": false,
      "stateMutability": "nonpayable",
      "type": "function"
    },
    {
      "constant": false,
      "inputs": [
        {
          "name": "_addr",
          "type": "address"
        },
        {
          "name": "_amt",
          "type": "uint256"
        }
      ],
      "name": "withdraw",
      "outputs": [],
      "payable": false,
      "stateMutability": "nonpayable",
      "type": "function"
    }
  ],
  "bytecode": "0x608060405234801561001057600080fd5b50336000806101000a81548173ffffffffffffffffffffffffffffffffffffffff021916908373ffffffffffffffffffffffffffffffffffffffff1602179055506103e8600160008060009054906101000a900473ffffffffffffffffffffffffffffffffffffffff1673ffffffffffffffffffffffffffffffffffffffff1673ffffffffffffffffffffffffffffffffffffffff1681526020019081526020016000208190555061059c806100c76000396000f3fe608060405234801561001057600080fd5b506004361061004c5760003560e01c806347e7ef24146100515780635091a65b1461009f57806373c2ec65146100f7578063f3fef3a314610145575b600080fd5b61009d6004803603604081101561006757600080fd5b81019080803573ffffffffffffffffffffffffffffffffffffffff16906020019092919080359060200190929190505050610193565b005b6100e1600480360360208110156100b557600080fd5b81019080803573ffffffffffffffffffffffffffffffffffffffff16906020019092919050505061023d565b6040518082815260200191505060405180910390f35b6101436004803603604081101561010d57600080fd5b81019080803573ffffffffffffffffffffffffffffffffffffffff16906020019092919080359060200190929190505050610286565b005b6101916004803603604081101561015b57600080fd5b81019080803573ffffffffffffffffffffffffffffffffffffffff169060200190929190803590602001909291905050506103c8565b005b600081116101ec576040517f08c379a00000000000000000000000000000000000000000000000000000000081526004018080602001828103825260278152602001806104be6027913960400191505060405180910390fd5b80600160008473ffffffffffffffffffffffffffffffffffffffff1673ffffffffffffffffffffffffffffffffffffffff168152602001908152602001600020600082825401925050819055505050565b6000600160008373ffffffffffffffffffffffffffffffffffffffff1673ffffffffffffffffffffffffffffffffffffffff168152602001908152602001600020549050919050565b6000811180156102d5575080600160003373ffffffffffffffffffffffffffffffffffffffff1673ffffffffffffffffffffffffffffffffffffffff1681526020019081526020016000205410155b61032a576040517f08c379a000000000000000000000000000000000000000000000000000000000815260040180806020018281038252602f8152602001806104e5602f913960400191505060405180910390fd5b80600160003373ffffffffffffffffffffffffffffffffffffffff1673ffffffffffffffffffffffffffffffffffffffff1681526020019081526020016000206000828254039250508190555080600160008473ffffffffffffffffffffffffffffffffffffffff1673ffffffffffffffffffffffffffffffffffffffff168152602001908152602001600020600082825401925050819055505050565b600081118015610417575080600160008473ffffffffffffffffffffffffffffffffffffffff1673ffffffffffffffffffffffffffffffffffffffff1681526020019081526020016000205410155b61046c576040517f08c379a000000000000000000000000000000000000000000000000000000000815260040180806020018281038252605d815260200180610514605d913960600191505060405180910390fd5b80600160008473ffffffffffffffffffffffffffffffffffffffff1673ffffffffffffffffffffffffffffffffffffffff16815260200190815260200160002060008282540392505081905550505056fe4465706f73697420616d6f756e742073686f756c642062652067726561746572207468616e203042616c616e63652073686f756c6420626520686967686572207468616e20746f206265207472616e73666572726564596f752063616e2077697468647261772066726f6d20796f7572206163636f756e74206f6e6c7920696620796f75722062616c616e636520697320686967686572207468616e20746865207769746864726177616c20616d6f756e742ea165627a7a723058201da6d8fea54918896fda36419310856629934a90543c07e314ecf7c6792af7980029",
  "source": "pragma solidity ^0.5.0;\n\n/// @title A simulator for bank operations\n/// @author Noopur N. Shinde\n/// @notice You can use this contract for only the most basic simulation\n\ncontract Bank{\n    \n    /// @notice Basic bank operations like deposit money, withdraw money, transfer money and view balance function\n    \n    address owner;\n    mapping(address => uint) balances ;\n    \n    constructor() public{\n    \n        owner = msg.sender;\n        balances[owner] = 1000;\n       \n    }\n    \n    /// @notice This function will add the specified amount to the specified bank account address\n    /// @param _addr The address for which amount needs to be deposited\n    /// @param _amt The amount to be deposited\n    function deposit(address _addr,uint _amt) public{\n        \n        require((_amt > 0), \"Deposit amount should be greater than 0\");\n        balances[_addr] += _amt;\n               \n    }\n    \n \n    /// @notice This function will display the balance of the specified bank account address\n    /// @param _addr The address for which balance needs to be displayed\n    /// @return balance in number format\n    function displayBalance(address _addr) public view returns(uint){\n    \n        return balances[_addr];\n    }\n    \n    /// @notice This function will transfer the specified amount from the bank account address calling this function, to the specified bank account address. It will also check if the amount is greater than 0 and the specified amount is present in the calling bank account address\n    /// @param _addrOfrec The address for which amount needs to be transferred\n    /// @param _amt The amount to be transferred\n    function sendbal(address _addrOfrec, uint _amt) public{\n        \n        require(_amt>0 && balances[msg.sender] >= _amt, \"Balance should be higher than to be transferred\");\n        balances[msg.sender] -= _amt;\n        balances[_addrOfrec] += _amt;\n       \n    }\n    \n    /// @notice This function will withdraw the specified amount from the bank account address checking if the amount is greater than 0 and the specified amount is present in the bank account address\n    /// @param _addr The address from which amount needs to be withdrawn\n    /// @param _amt The amount to be withdrawn\n    function withdraw(address _addr, uint _amt) public{\n        \n        require(_amt>0 && balances[_addr] >= _amt, \"You can withdraw from your account only if your balance is higher than the withdrawal amount.\");\n        balances[_addr] -= _amt;\n        \n    }\n    \n    \n}",
  "sourcePath": "/home/noopur/Blockchain_Training/My_token_V1/contracts/Bank.sol",
  "compiler": {
    "name": "solc",
    "version": "0.5.8+commit.23d335f2.Emscripten.clang"
  },
  "schemaVersion": "3.0.13",
  "updatedAt": "2019-09-16T10:40:46.307Z",
  "devdoc": {
    "author": "Noopur N. Shinde",
    "methods": {
      "deposit(address,uint256)": {
        "params": {
          "_addr": "The address for which amount needs to be deposited",
          "_amt": "The amount to be deposited"
        }
      },
      "displayBalance(address)": {
        "params": {
          "_addr": "The address for which balance needs to be displayed"
        },
        "return": "balance in number format"
      },
      "sendbal(address,uint256)": {
        "params": {
          "_addrOfrec": "The address for which amount needs to be transferred",
          "_amt": "The amount to be transferred"
        }
      },
      "withdraw(address,uint256)": {
        "params": {
          "_addr": "The address from which amount needs to be withdrawn",
          "_amt": "The amount to be withdrawn"
        }
      }
    },
    "title": "A simulator for bank operations"
  },
  "userdoc": {
    "methods": {
      "deposit(address,uint256)": {
        "notice": "This function will add the specified amount to the specified bank account address"
      },
      "displayBalance(address)": {
        "notice": "This function will display the balance of the specified bank account address"
      },
      "sendbal(address,uint256)": {
        "notice": "This function will transfer the specified amount from the bank account address calling this function, to the specified bank account address. It will also check if the amount is greater than 0 and the specified amount is present in the calling bank account address"
      },
      "withdraw(address,uint256)": {
        "notice": "This function will withdraw the specified amount from the bank account address checking if the amount is greater than 0 and the specified amount is present in the bank account address"
      }
    },
    "notice": "You can use this contract for only the most basic simulation"
  }
}