{
  "contractName": "FloodReliefDonation",
  "abi": [
    {
      "constant": true,
      "inputs": [],
      "name": "Donor",
      "outputs": [
        {
          "name": "ID",
          "type": "uint256"
        },
        {
          "name": "state",
          "type": "string"
        },
        {
          "name": "amt",
          "type": "uint256"
        }
      ],
      "payable": false,
      "stateMutability": "view",
      "type": "function"
    },
    {
      "constant": true,
      "inputs": [],
      "name": "raisedAmount",
      "outputs": [
        {
          "name": "",
          "type": "uint256"
        }
      ],
      "payable": false,
      "stateMutability": "view",
      "type": "function"
    },
    {
      "constant": true,
      "inputs": [],
      "name": "totalContributors",
      "outputs": [
        {
          "name": "",
          "type": "uint256"
        }
      ],
      "payable": false,
      "stateMutability": "view",
      "type": "function"
    },
    {
      "constant": true,
      "inputs": [],
      "name": "admin",
      "outputs": [
        {
          "name": "",
          "type": "address"
        }
      ],
      "payable": false,
      "stateMutability": "view",
      "type": "function"
    },
    {
      "inputs": [],
      "payable": false,
      "stateMutability": "nonpayable",
      "type": "constructor"
    },
    {
      "anonymous": false,
      "inputs": [
        {
          "indexed": false,
          "name": "statename",
          "type": "string"
        },
        {
          "indexed": false,
          "name": "id",
          "type": "uint256"
        }
      ],
      "name": "contributed",
      "type": "event"
    },
    {
      "constant": false,
      "inputs": [
        {
          "name": "state",
          "type": "string"
        },
        {
          "name": "_amt",
          "type": "uint256"
        }
      ],
      "name": "contribute",
      "outputs": [],
      "payable": true,
      "stateMutability": "payable",
      "type": "function"
    },
    {
      "constant": true,
      "inputs": [
        {
          "name": "",
          "type": "uint256"
        }
      ],
      "name": "getContributorinfo",
      "outputs": [
        {
          "name": "ID",
          "type": "uint256"
        },
        {
          "name": "stateDOnated",
          "type": "string"
        },
        {
          "name": "Amt",
          "type": "uint256"
        }
      ],
      "payable": false,
      "stateMutability": "view",
      "type": "function"
    },
    {
      "constant": true,
      "inputs": [
        {
          "name": "_state",
          "type": "string"
        }
      ],
      "name": "getnumoffundcnt_state",
      "outputs": [
        {
          "name": "",
          "type": "uint256"
        }
      ],
      "payable": false,
      "stateMutability": "view",
      "type": "function"
    },
    {
      "constant": true,
      "inputs": [
        {
          "name": "_state",
          "type": "string"
        }
      ],
      "name": "get_totalFunds",
      "outputs": [
        {
          "name": "",
          "type": "uint256"
        }
      ],
      "payable": false,
      "stateMutability": "view",
      "type": "function"
    },
    {
      "constant": true,
      "inputs": [
        {
          "name": "_state",
          "type": "string"
        },
        {
          "name": "requiredAmt",
          "type": "uint256"
        }
      ],
      "name": "chkspendings",
      "outputs": [
        {
          "name": "",
          "type": "bool"
        }
      ],
      "payable": false,
      "stateMutability": "view",
      "type": "function"
    }
  ],
  "bytecode": "0x6080604052600080556000600155600060035534801561001e57600080fd5b5033600260006101000a81548173ffffffffffffffffffffffffffffffffffffffff021916908373ffffffffffffffffffffffffffffffffffffffff160217905550610db98061006f6000396000f3fe6080604052600436106100865760003560e01c8063ae817f9a11610059578063ae817f9a146103cb578063c59ee1dc14610490578063d17caa52146104bb578063f251fc8c1461057d578063f851a440146105a857610086565b80634b9e6fd11461008b5780637547134f146101675780637a881c82146102055780638b72d952146102e1575b600080fd5b34801561009757600080fd5b50610151600480360360208110156100ae57600080fd5b81019080803590602001906401000000008111156100cb57600080fd5b8201836020820111156100dd57600080fd5b803590602001918460018302840111640100000000831117156100ff57600080fd5b91908080601f016020809104026020016040519081016040528093929190818152602001838380828437600081840152601f19601f8201169050808301925050505050505091929192905050506105ff565b6040518082815260200191505060405180910390f35b34801561017357600080fd5b5061017c610672565b6040518084815260200180602001838152602001828103825284818151815260200191508051906020019080838360005b838110156101c85780820151818401526020810190506101ad565b50505050905090810190601f1680156101f55780820380516001836020036101000a031916815260200191505b5094505050505060405180910390f35b34801561021157600080fd5b506102cb6004803603602081101561022857600080fd5b810190808035906020019064010000000081111561024557600080fd5b82018360208201111561025757600080fd5b8035906020019184600183028401116401000000008311171561027957600080fd5b91908080601f016020809104026020016040519081016040528093929190818152602001838380828437600081840152601f19601f820116905080830192505050505050509192919290505050610722565b6040518082815260200191505060405180910390f35b3480156102ed57600080fd5b506103b16004803603604081101561030457600080fd5b810190808035906020019064010000000081111561032157600080fd5b82018360208201111561033357600080fd5b8035906020019184600183028401116401000000008311171561035557600080fd5b91908080601f016020809104026020016040519081016040528093929190818152602001838380828437600081840152601f19601f82011690508083019250505050505050919291929080359060200190929190505050610795565b604051808215151515815260200191505060405180910390f35b61048e600480360360408110156103e157600080fd5b81019080803590602001906401000000008111156103fe57600080fd5b82018360208201111561041057600080fd5b8035906020019184600183028401116401000000008311171561043257600080fd5b91908080601f016020809104026020016040519081016040528093929190818152602001838380828437600081840152601f19601f8201169050808301925050505050505091929192908035906020019092919050505061087c565b005b34801561049c57600080fd5b506104a5610bf6565b6040518082815260200191505060405180910390f35b3480156104c757600080fd5b506104f4600480360360208110156104de57600080fd5b8101908080359060200190929190505050610bfc565b6040518084815260200180602001838152602001828103825284818151815260200191508051906020019080838360005b83811015610540578082015181840152602081019050610525565b50505050905090810190601f16801561056d5780820380516001836020036101000a031916815260200191505b5094505050505060405180910390f35b34801561058957600080fd5b50610592610cbc565b6040518082815260200191505060405180910390f35b3480156105b457600080fd5b506105bd610cc2565b604051808273ffffffffffffffffffffffffffffffffffffffff1673ffffffffffffffffffffffffffffffffffffffff16815260200191505060405180910390f35b60006009826040518082805190602001908083835b602083106106375780518252602082019150602081019050602083039250610614565b6001836020036101000a0380198251168184511680821785525050505050509050019150509081526020016040518091039020549050919050565b6005806000015490806001018054600181600116156101000203166002900480601f0160208091040260200160405190810160405280929190818152602001828054600181600116156101000203166002900480156107125780601f106106e757610100808354040283529160200191610712565b820191906000526020600020905b8154815290600101906020018083116106f557829003601f168201915b5050505050908060020154905083565b6000600a826040518082805190602001908083835b6020831061075a5780518252602082019150602081019050602083039250610737565b6001836020036101000a0380198251168184511680821785525050505050509050019150509081526020016040518091039020549050919050565b600081600a846040518082805190602001908083835b602083106107ce57805182526020820191506020810190506020830392506107ab565b6001836020036101000a0380198251168184511680821785525050505050509050019150509081526020016040518091039020541015610876576040517f08c379a000000000000000000000000000000000000000000000000000000000815260040180806020018281038252601e8152602001807f46756e6473206e6f74207573656420696e20612070726f70657220776179000081525060200191505060405180910390fd5b92915050565b6000600860003373ffffffffffffffffffffffffffffffffffffffff1673ffffffffffffffffffffffffffffffffffffffff16815260200190815260200160002054141561091857600080815480929190600101919050555081600560010190805190602001906108ee929190610ce8565b50806005600201819055506003546005600001819055506003600081548092919060010191905055505b80600860003373ffffffffffffffffffffffffffffffffffffffff1673ffffffffffffffffffffffffffffffffffffffff168152602001908152602001600020600082825401925050819055508060016000828254019250508190555060016009836040518082805190602001908083835b602083106109ad578051825260208201915060208101905060208303925061098a565b6001836020036101000a038019825116818451168082178552505050505050905001915050908152602001604051809103902054016009836040518082805190602001908083835b60208310610a1857805182526020820191506020810190506020830392506109f5565b6001836020036101000a03801982511681845116808217855250505050505090500191505090815260200160405180910390208190555080600a836040518082805190602001908083835b60208310610a865780518252602082019150602081019050602083039250610a63565b6001836020036101000a03801982511681845116808217855250505050505090500191505090815260200160405180910390205401600a836040518082805190602001908083835b60208310610af15780518252602082019150602081019050602083039250610ace565b6001836020036101000a0380198251168184511680821785525050505050509050019150509081526020016040518091039020819055507f9d2aef3b28133dc51446db7ab8485d2644fe51470bf799e61886ab8acf9e736360056001016005600001546040518080602001838152602001828103825284818154600181600116156101000203166002900481526020019150805460018160011615610100020316600290048015610be35780601f10610bb857610100808354040283529160200191610be3565b820191906000526020600020905b815481529060010190602001808311610bc657829003601f168201915b5050935050505060405180910390a15050565b60015481565b6000606060006005600001546005600101600560020154818054600181600116156101000203166002900480601f016020809104026020016040519081016040528092919081815260200182805460018160011615610100020316600290048015610ca85780601f10610c7d57610100808354040283529160200191610ca8565b820191906000526020600020905b815481529060010190602001808311610c8b57829003601f168201915b505050505091509250925092509193909250565b60005481565b600260009054906101000a900473ffffffffffffffffffffffffffffffffffffffff1681565b828054600181600116156101000203166002900490600052602060002090601f016020900481019282601f10610d2957805160ff1916838001178555610d57565b82800160010185558215610d57579182015b82811115610d56578251825591602001919060010190610d3b565b5b509050610d649190610d68565b5090565b610d8a91905b80821115610d86576000816000905550600101610d6e565b5090565b9056fea165627a7a7230582055954e6986a32fb5bec7338b3a1be69ec1efff35645733d872badefe8fa16d820029",
  "source": "pragma solidity ^0.5.0;\n\ncontract FloodReliefDonation {\n\n   // STORAGE VARIABLES\n   \n    uint public totalContributors = 0; // TOTAL COUNT OF CONTRIBUTORS\n    uint public raisedAmount = 0 ;    // AMOUNT RAISED\n    address public admin;             // FUND OWNER\n    uint id = 0;\n    uint spendamt;\n  \n    struct donors{\n       \n        uint ID;\n        string state;\n        uint amt;\n           \n    }\n   \n    donors public Donor;\n\n    constructor() public{\n        admin = msg.sender;\n    }\n   \n    mapping(address=>uint) contributions;\n    \n    mapping(string => uint) statedonationcount;\n    \n    mapping(string => uint) statecontributionst;\n    \n    event contributed(string statename, uint id);\n\n    function contribute(string memory state, uint _amt) public payable {\n       \n        // CHECKING WHETHER THIS IS THE FIRST TIME THAT APERSON IS CONTRIBUTING TO THIS CAMPAIGN\n       \n\n        if(contributions[msg.sender] == 0)\n        {\n           \n        // IF ITS HIS FIRST CONTRIBUTION WE NEED TO INCREMENT THE totalContributors STORAGE VARIABLE BY 1\n            totalContributors++;\n            Donor.state = state;\n            Donor.amt = _amt;\n            Donor.ID = id;\n            id++;\n        }\n       \n        // IF ITS NOT HIS/HER FIRST TIME CONTRIBUTING  THEN WE SIMPLY ADD THE AMOUNT SENT TO HIS/HER PREVIOUS CONTRIBUTION\n        // AND THEN ALSO ADD THE AMOUNT SENT TO THE raisedAmount STORAGE VARIABLE\n        contributions[msg.sender] += _amt;\n       \n        raisedAmount += _amt;\n        //statedonation.states.push(state);\n        statedonationcount[state] = statedonationcount[state]+1;\n        statecontributionst[state] = statecontributionst[state] + _amt;\n\n        emit contributed(Donor.state,Donor.ID);\n    }\n   \n    function getContributorinfo(uint) public view returns(uint ID, string memory stateDOnated, uint Amt){\n        return (Donor.ID,Donor.state,Donor.amt);\n    }\n    \n    function getnumoffundcnt_state(string memory _state) public view returns(uint){\n        return statedonationcount[_state];\n    }\n    \n    function get_totalFunds(string memory _state) public view returns(uint){\n        return statecontributionst[_state];\n    }\n    \n    function chkspendings(string memory _state, uint  requiredAmt) public view returns(bool){\n        require(statecontributionst[_state]>=requiredAmt,\"Funds not used in a proper way\");\n    }\n   \n\n}\n",
  "sourcePath": "/home/noopur/Blockchain_Training/My_token_V1/contracts/FloodReliefDonation.sol",
  "compiler": {
    "name": "solc",
    "version": "0.5.8+commit.23d335f2.Emscripten.clang"
  },
  "schemaVersion": "3.0.13",
  "updatedAt": "2019-09-16T10:40:46.312Z",
  "devdoc": {
    "methods": {}
  },
  "userdoc": {
    "methods": {}
  }
}