{
  "contractName": "MultiSigWallet",
  "abi": [
    {
      "constant": true,
      "inputs": [
        {
          "name": "",
          "type": "uint256"
        }
      ],
      "name": "owners",
      "outputs": [
        {
          "name": "",
          "type": "address"
        }
      ],
      "payable": false,
      "stateMutability": "view",
      "type": "function"
    },
    {
      "constant": true,
      "inputs": [
        {
          "name": "",
          "type": "address"
        }
      ],
      "name": "isOwner",
      "outputs": [
        {
          "name": "",
          "type": "bool"
        }
      ],
      "payable": false,
      "stateMutability": "view",
      "type": "function"
    },
    {
      "constant": true,
      "inputs": [
        {
          "name": "",
          "type": "uint256"
        },
        {
          "name": "",
          "type": "address"
        }
      ],
      "name": "confirmations",
      "outputs": [
        {
          "name": "",
          "type": "bool"
        }
      ],
      "payable": false,
      "stateMutability": "view",
      "type": "function"
    },
    {
      "constant": true,
      "inputs": [
        {
          "name": "",
          "type": "uint256"
        }
      ],
      "name": "transactions",
      "outputs": [
        {
          "name": "destination",
          "type": "address"
        },
        {
          "name": "value",
          "type": "uint256"
        },
        {
          "name": "data",
          "type": "bytes"
        },
        {
          "name": "executed",
          "type": "bool"
        }
      ],
      "payable": false,
      "stateMutability": "view",
      "type": "function"
    },
    {
      "constant": true,
      "inputs": [],
      "name": "transactionCount",
      "outputs": [
        {
          "name": "",
          "type": "uint256"
        }
      ],
      "payable": false,
      "stateMutability": "view",
      "type": "function"
    },
    {
      "constant": true,
      "inputs": [],
      "name": "MAX_OWNER_COUNT",
      "outputs": [
        {
          "name": "",
          "type": "uint256"
        }
      ],
      "payable": false,
      "stateMutability": "view",
      "type": "function"
    },
    {
      "constant": true,
      "inputs": [],
      "name": "required",
      "outputs": [
        {
          "name": "",
          "type": "uint256"
        }
      ],
      "payable": false,
      "stateMutability": "view",
      "type": "function"
    },
    {
      "inputs": [
        {
          "name": "_owners",
          "type": "address[]"
        },
        {
          "name": "_required",
          "type": "uint256"
        }
      ],
      "payable": false,
      "stateMutability": "nonpayable",
      "type": "constructor"
    },
    {
      "payable": true,
      "stateMutability": "payable",
      "type": "fallback"
    },
    {
      "anonymous": false,
      "inputs": [
        {
          "indexed": true,
          "name": "sender",
          "type": "address"
        },
        {
          "indexed": true,
          "name": "transactionId",
          "type": "uint256"
        }
      ],
      "name": "Confirmation",
      "type": "event"
    },
    {
      "anonymous": false,
      "inputs": [
        {
          "indexed": true,
          "name": "sender",
          "type": "address"
        },
        {
          "indexed": true,
          "name": "transactionId",
          "type": "uint256"
        }
      ],
      "name": "Revocation",
      "type": "event"
    },
    {
      "anonymous": false,
      "inputs": [
        {
          "indexed": true,
          "name": "transactionId",
          "type": "uint256"
        }
      ],
      "name": "Submission",
      "type": "event"
    },
    {
      "anonymous": false,
      "inputs": [
        {
          "indexed": true,
          "name": "transactionId",
          "type": "uint256"
        }
      ],
      "name": "Execution",
      "type": "event"
    },
    {
      "anonymous": false,
      "inputs": [
        {
          "indexed": true,
          "name": "transactionId",
          "type": "uint256"
        }
      ],
      "name": "ExecutionFailure",
      "type": "event"
    },
    {
      "anonymous": false,
      "inputs": [
        {
          "indexed": true,
          "name": "sender",
          "type": "address"
        },
        {
          "indexed": false,
          "name": "value",
          "type": "uint256"
        }
      ],
      "name": "Deposit",
      "type": "event"
    },
    {
      "anonymous": false,
      "inputs": [
        {
          "indexed": true,
          "name": "owner",
          "type": "address"
        }
      ],
      "name": "OwnerAddition",
      "type": "event"
    },
    {
      "anonymous": false,
      "inputs": [
        {
          "indexed": true,
          "name": "owner",
          "type": "address"
        }
      ],
      "name": "OwnerRemoval",
      "type": "event"
    },
    {
      "anonymous": false,
      "inputs": [
        {
          "indexed": false,
          "name": "required",
          "type": "uint256"
        }
      ],
      "name": "RequirementChange",
      "type": "event"
    },
    {
      "constant": true,
      "inputs": [],
      "name": "msgsender",
      "outputs": [
        {
          "name": "",
          "type": "address"
        }
      ],
      "payable": false,
      "stateMutability": "view",
      "type": "function"
    },
    {
      "constant": false,
      "inputs": [
        {
          "name": "owner",
          "type": "address"
        }
      ],
      "name": "addOwner",
      "outputs": [],
      "payable": true,
      "stateMutability": "payable",
      "type": "function"
    },
    {
      "constant": false,
      "inputs": [
        {
          "name": "owner",
          "type": "address"
        }
      ],
      "name": "removeOwner",
      "outputs": [],
      "payable": false,
      "stateMutability": "nonpayable",
      "type": "function"
    },
    {
      "constant": false,
      "inputs": [
        {
          "name": "owner",
          "type": "address"
        },
        {
          "name": "newOwner",
          "type": "address"
        }
      ],
      "name": "replaceOwner",
      "outputs": [],
      "payable": false,
      "stateMutability": "nonpayable",
      "type": "function"
    },
    {
      "constant": false,
      "inputs": [
        {
          "name": "_required",
          "type": "uint256"
        }
      ],
      "name": "changeRequirement",
      "outputs": [],
      "payable": false,
      "stateMutability": "nonpayable",
      "type": "function"
    },
    {
      "constant": false,
      "inputs": [
        {
          "name": "destination",
          "type": "address"
        },
        {
          "name": "value",
          "type": "uint256"
        },
        {
          "name": "data",
          "type": "bytes"
        }
      ],
      "name": "submitTransaction",
      "outputs": [
        {
          "name": "transactionId",
          "type": "uint256"
        }
      ],
      "payable": false,
      "stateMutability": "nonpayable",
      "type": "function"
    },
    {
      "constant": false,
      "inputs": [
        {
          "name": "transactionId",
          "type": "uint256"
        }
      ],
      "name": "confirmTransaction",
      "outputs": [],
      "payable": false,
      "stateMutability": "nonpayable",
      "type": "function"
    },
    {
      "constant": false,
      "inputs": [
        {
          "name": "transactionId",
          "type": "uint256"
        }
      ],
      "name": "revokeConfirmation",
      "outputs": [],
      "payable": false,
      "stateMutability": "nonpayable",
      "type": "function"
    },
    {
      "constant": false,
      "inputs": [
        {
          "name": "transactionId",
          "type": "uint256"
        }
      ],
      "name": "executeTransaction",
      "outputs": [],
      "payable": false,
      "stateMutability": "nonpayable",
      "type": "function"
    },
    {
      "constant": true,
      "inputs": [
        {
          "name": "transactionId",
          "type": "uint256"
        }
      ],
      "name": "isConfirmed",
      "outputs": [
        {
          "name": "",
          "type": "bool"
        }
      ],
      "payable": false,
      "stateMutability": "view",
      "type": "function"
    },
    {
      "constant": true,
      "inputs": [
        {
          "name": "transactionId",
          "type": "uint256"
        }
      ],
      "name": "getConfirmationCount",
      "outputs": [
        {
          "name": "count",
          "type": "uint256"
        }
      ],
      "payable": false,
      "stateMutability": "view",
      "type": "function"
    },
    {
      "constant": true,
      "inputs": [
        {
          "name": "pending",
          "type": "bool"
        },
        {
          "name": "executed",
          "type": "bool"
        }
      ],
      "name": "getTransactionCount",
      "outputs": [
        {
          "name": "count",
          "type": "uint256"
        }
      ],
      "payable": false,
      "stateMutability": "view",
      "type": "function"
    },
    {
      "constant": true,
      "inputs": [],
      "name": "getOwners",
      "outputs": [
        {
          "name": "",
          "type": "address[]"
        }
      ],
      "payable": false,
      "stateMutability": "view",
      "type": "function"
    },
    {
      "constant": true,
      "inputs": [
        {
          "name": "transactionId",
          "type": "uint256"
        }
      ],
      "name": "getConfirmations",
      "outputs": [
        {
          "name": "_confirmations",
          "type": "address[]"
        }
      ],
      "payable": false,
      "stateMutability": "view",
      "type": "function"
    },
    {
      "constant": true,
      "inputs": [
        {
          "name": "from",
          "type": "uint256"
        },
        {
          "name": "to",
          "type": "uint256"
        },
        {
          "name": "pending",
          "type": "bool"
        },
        {
          "name": "executed",
          "type": "bool"
        }
      ],
      "name": "getTransactionIds",
      "outputs": [
        {
          "name": "_transactionIds",
          "type": "uint256[]"
        }
      ],
      "payable": false,
      "stateMutability": "view",
      "type": "function"
    }
  ],
  "bytecode": "0x608060405260326000553480156200001657600080fd5b5060405162002f1c38038062002f1c833981018060405260408110156200003c57600080fd5b8101908080516401000000008111156200005557600080fd5b828101905060208101848111156200006c57600080fd5b81518560208202830111640100000000821117156200008a57600080fd5b505092919060200180519060200190929190505050815181600054821180620000b257508181115b80620000be5750600081145b80620000ca5750600082145b156200013e576040517f08c379a000000000000000000000000000000000000000000000000000000000815260040180806020018281038252601d8152602001807f526571756972656d656e742073686f756c64206265206368616e67656400000081525060200191505060405180910390fd5b60008090505b84518110156200031b576003600086838151811015156200016157fe5b9060200190602002015173ffffffffffffffffffffffffffffffffffffffff1673ffffffffffffffffffffffffffffffffffffffff16815260200190815260200160002060009054906101000a900460ff1680620002035750600073ffffffffffffffffffffffffffffffffffffffff168582815181101515620001e157fe5b9060200190602002015173ffffffffffffffffffffffffffffffffffffffff16145b156200029d576040517f08c379a00000000000000000000000000000000000000000000000000000000081526004018080602001828103825260288152602001807f4f776e657220616464726573732073686f756c64206e6f74206265207a65726f81526020017f206164647265737300000000000000000000000000000000000000000000000081525060400191505060405180910390fd5b6001600360008784815181101515620002b257fe5b9060200190602002015173ffffffffffffffffffffffffffffffffffffffff1673ffffffffffffffffffffffffffffffffffffffff16815260200190815260200160002060006101000a81548160ff021916908315150217905550808060010191505062000144565b5083600490805190602001906200033492919062000346565b5082600581905550505050506200041b565b828054828255906000526020600020908101928215620003c2579160200282015b82811115620003c15782518260006101000a81548173ffffffffffffffffffffffffffffffffffffffff021916908373ffffffffffffffffffffffffffffffffffffffff1602179055509160200191906001019062000367565b5b509050620003d19190620003d5565b5090565b6200041891905b808211156200041457600081816101000a81549073ffffffffffffffffffffffffffffffffffffffff021916905550600101620003dc565b5090565b90565b612af1806200042b6000396000f3fe608060405260043610610122576000357c010000000000000000000000000000000000000000000000000000000090048063025e7c271461017c578063173825d9146101f757806320ea8d86146102485780632f54bf6e146102835780633411c81c146102ec578063547415251461035f57806361c99b92146103bc5780637065cb4814610413578063784547a7146104575780638b51d13f146104aa5780639ace38c2146104f9578063a0e67e2b146105f2578063a8abe69a1461065e578063b5dc40c314610710578063b77bf600146107a0578063ba51a6df146107cb578063c01a8c8414610806578063c642747414610841578063d74f8edd14610947578063dc8452cd14610972578063e20056e61461099d578063ee22610b14610a0e575b600034111561017a573373ffffffffffffffffffffffffffffffffffffffff167fe1fffcc4923d04b559f4d29a8bfc6cda04eb5b0d3c460751c2402c5c5cc9109c346040518082815260200191505060405180910390a25b005b34801561018857600080fd5b506101b56004803603602081101561019f57600080fd5b8101908080359060200190929190505050610a49565b604051808273ffffffffffffffffffffffffffffffffffffffff1673ffffffffffffffffffffffffffffffffffffffff16815260200191505060405180910390f35b34801561020357600080fd5b506102466004803603602081101561021a57600080fd5b81019080803573ffffffffffffffffffffffffffffffffffffffff169060200190929190505050610a87565b005b34801561025457600080fd5b506102816004803603602081101561026b57600080fd5b8101908080359060200190929190505050610df1565b005b34801561028f57600080fd5b506102d2600480360360208110156102a657600080fd5b81019080803573ffffffffffffffffffffffffffffffffffffffff1690602001909291905050506110f9565b604051808215151515815260200191505060405180910390f35b3480156102f857600080fd5b506103456004803603604081101561030f57600080fd5b8101908080359060200190929190803573ffffffffffffffffffffffffffffffffffffffff169060200190929190505050611119565b604051808215151515815260200191505060405180910390f35b34801561036b57600080fd5b506103a66004803603604081101561038257600080fd5b81019080803515159060200190929190803515159060200190929190505050611148565b6040518082815260200191505060405180910390f35b3480156103c857600080fd5b506103d16111dc565b604051808273ffffffffffffffffffffffffffffffffffffffff1673ffffffffffffffffffffffffffffffffffffffff16815260200191505060405180910390f35b6104556004803603602081101561042957600080fd5b81019080803573ffffffffffffffffffffffffffffffffffffffff1690602001909291905050506111e4565b005b34801561046357600080fd5b506104906004803603602081101561047a57600080fd5b8101908080359060200190929190505050611598565b604051808215151515815260200191505060405180910390f35b3480156104b657600080fd5b506104e3600480360360208110156104cd57600080fd5b810190808035906020019092919050505061167f565b6040518082815260200191505060405180910390f35b34801561050557600080fd5b506105326004803603602081101561051c57600080fd5b810190808035906020019092919050505061174a565b604051808573ffffffffffffffffffffffffffffffffffffffff1673ffffffffffffffffffffffffffffffffffffffff1681526020018481526020018060200183151515158152602001828103825284818151815260200191508051906020019080838360005b838110156105b4578082015181840152602081019050610599565b50505050905090810190601f1680156105e15780820380516001836020036101000a031916815260200191505b509550505050505060405180910390f35b3480156105fe57600080fd5b5061060761183f565b6040518080602001828103825283818151815260200191508051906020019060200280838360005b8381101561064a57808201518184015260208101905061062f565b505050509050019250505060405180910390f35b34801561066a57600080fd5b506106b96004803603608081101561068157600080fd5b8101908080359060200190929190803590602001909291908035151590602001909291908035151590602001909291905050506118cd565b6040518080602001828103825283818151815260200191508051906020019060200280838360005b838110156106fc5780820151818401526020810190506106e1565b505050509050019250505060405180910390f35b34801561071c57600080fd5b506107496004803603602081101561073357600080fd5b8101908080359060200190929190505050611a3f565b6040518080602001828103825283818151815260200191508051906020019060200280838360005b8381101561078c578082015181840152602081019050610771565b505050509050019250505060405180910390f35b3480156107ac57600080fd5b506107b5611c7b565b6040518082815260200191505060405180910390f35b3480156107d757600080fd5b50610804600480360360208110156107ee57600080fd5b8101908080359060200190929190505050611c81565b005b34801561081257600080fd5b5061083f6004803603602081101561082957600080fd5b8101908080359060200190929190505050611e06565b005b34801561084d57600080fd5b506109316004803603606081101561086457600080fd5b81019080803573ffffffffffffffffffffffffffffffffffffffff16906020019092919080359060200190929190803590602001906401000000008111156108ab57600080fd5b8201836020820111156108bd57600080fd5b803590602001918460018302840111640100000000831117156108df57600080fd5b91908080601f016020809104026020016040519081016040528093929190818152602001838380828437600081840152601f19601f820116905080830192505050505050509192919290505050612158565b6040518082815260200191505060405180910390f35b34801561095357600080fd5b5061095c612177565b6040518082815260200191505060405180910390f35b34801561097e57600080fd5b5061098761217d565b6040518082815260200191505060405180910390f35b3480156109a957600080fd5b50610a0c600480360360408110156109c057600080fd5b81019080803573ffffffffffffffffffffffffffffffffffffffff169060200190929190803573ffffffffffffffffffffffffffffffffffffffff169060200190929190505050612183565b005b348015610a1a57600080fd5b50610a4760048036036020811015610a3157600080fd5b81019080803590602001909291905050506125d0565b005b600481815481101515610a5857fe5b906000526020600020016000915054906101000a900473ffffffffffffffffffffffffffffffffffffffff1681565b3073ffffffffffffffffffffffffffffffffffffffff163373ffffffffffffffffffffffffffffffffffffffff16141515610b2a576040517f08c379a00000000000000000000000000000000000000000000000000000000081526004018080602001828103825260148152602001807f4e6f7420612077616c6c6574206164647265737300000000000000000000000081525060200191505060405180910390fd5b80600360008273ffffffffffffffffffffffffffffffffffffffff1673ffffffffffffffffffffffffffffffffffffffff16815260200190815260200160002060009054906101000a900460ff161515610bec576040517f08c379a00000000000000000000000000000000000000000000000000000000081526004018080602001828103825260148152602001807f4f776e657220646f6573206e6f7420657869737400000000000000000000000081525060200191505060405180910390fd5b6000600360008473ffffffffffffffffffffffffffffffffffffffff1673ffffffffffffffffffffffffffffffffffffffff16815260200190815260200160002060006101000a81548160ff02191690831515021790555060008090505b600160048054905003811015610d72578273ffffffffffffffffffffffffffffffffffffffff16600482815481101515610c8057fe5b9060005260206000200160009054906101000a900473ffffffffffffffffffffffffffffffffffffffff1673ffffffffffffffffffffffffffffffffffffffff161415610d65576004600160048054905003815481101515610cde57fe5b9060005260206000200160009054906101000a900473ffffffffffffffffffffffffffffffffffffffff16600482815481101515610d1857fe5b9060005260206000200160006101000a81548173ffffffffffffffffffffffffffffffffffffffff021916908373ffffffffffffffffffffffffffffffffffffffff160217905550610d72565b8080600101915050610c4a565b506001600481818054905003915081610d8b91906129f4565b506004805490506005541115610daa57610da9600480549050611c81565b5b8173ffffffffffffffffffffffffffffffffffffffff167f8001553a916ef2f495d26a907cc54d96ed840d7bda71e73194bf5a9df7a76b9060405160405180910390a25050565b33600360008273ffffffffffffffffffffffffffffffffffffffff1673ffffffffffffffffffffffffffffffffffffffff16815260200190815260200160002060009054906101000a900460ff161515610eb3576040517f08c379a00000000000000000000000000000000000000000000000000000000081526004018080602001828103825260148152602001807f4f776e657220646f6573206e6f7420657869737400000000000000000000000081525060200191505060405180910390fd5b81336002600083815260200190815260200160002060008273ffffffffffffffffffffffffffffffffffffffff1673ffffffffffffffffffffffffffffffffffffffff16815260200190815260200160002060009054906101000a900460ff161515610fad576040517f08c379a00000000000000000000000000000000000000000000000000000000081526004018080602001828103825260278152602001807f5472616e73616374696f6e206e6f7420636f6e6669726d6564206279206d736781526020017f2e73656e6465720000000000000000000000000000000000000000000000000081525060400191505060405180910390fd5b836001600082815260200190815260200160002060030160009054906101000a900460ff1615611045576040517f08c379a000000000000000000000000000000000000000000000000000000000815260040180806020018281038252601d8152602001807f5472616e73616374696f6e20686173206265656e20657865637574656400000081525060200191505060405180910390fd5b60006002600087815260200190815260200160002060003373ffffffffffffffffffffffffffffffffffffffff1673ffffffffffffffffffffffffffffffffffffffff16815260200190815260200160002060006101000a81548160ff021916908315150217905550843373ffffffffffffffffffffffffffffffffffffffff167ff6a317157440607f36269043eb55f1287a5a19ba2216afeab88cd46cbcfb88e960405160405180910390a35050505050565b60036020528060005260406000206000915054906101000a900460ff1681565b60026020528160005260406000206020528060005260406000206000915091509054906101000a900460ff1681565b600080600090505b6006548110156111d55783801561118857506001600082815260200190815260200160002060030160009054906101000a900460ff16155b806111bc57508280156111bb57506001600082815260200190815260200160002060030160009054906101000a900460ff165b5b156111c8576001820191505b8080600101915050611150565b5092915050565b600033905090565b3073ffffffffffffffffffffffffffffffffffffffff163373ffffffffffffffffffffffffffffffffffffffff16141515611287576040517f08c379a00000000000000000000000000000000000000000000000000000000081526004018080602001828103825260148152602001807f4e6f7420612077616c6c6574206164647265737300000000000000000000000081525060200191505060405180910390fd5b80600360008273ffffffffffffffffffffffffffffffffffffffff1673ffffffffffffffffffffffffffffffffffffffff16815260200190815260200160002060009054906101000a900460ff1615611348576040517f08c379a000000000000000000000000000000000000000000000000000000000815260040180806020018281038252600c8152602001807f4f776e657220657869737473000000000000000000000000000000000000000081525060200191505060405180910390fd5b81600073ffffffffffffffffffffffffffffffffffffffff168173ffffffffffffffffffffffffffffffffffffffff1614156113ec576040517f08c379a00000000000000000000000000000000000000000000000000000000081526004018080602001828103825260158152602001807f4e756c6c2061646472657373207265636569766564000000000000000000000081525060200191505060405180910390fd5b60016004805490500160055460005482118061140757508181115b806114125750600081145b8061141d5750600082145b15611490576040517f08c379a000000000000000000000000000000000000000000000000000000000815260040180806020018281038252601d8152602001807f526571756972656d656e742073686f756c64206265206368616e67656400000081525060200191505060405180910390fd5b6001600360008773ffffffffffffffffffffffffffffffffffffffff1673ffffffffffffffffffffffffffffffffffffffff16815260200190815260200160002060006101000a81548160ff02191690831515021790555060048590806001815401808255809150509060018203906000526020600020016000909192909190916101000a81548173ffffffffffffffffffffffffffffffffffffffff021916908373ffffffffffffffffffffffffffffffffffffffff160217905550508473ffffffffffffffffffffffffffffffffffffffff167ff39e6e1eb0edcf53c221607b54b00cd28f3196fed0a24994dc308b8f611b682d60405160405180910390a25050505050565b6000806000905060008090505b600480549050811015611677576002600085815260200190815260200160002060006004838154811015156115d657fe5b9060005260206000200160009054906101000a900473ffffffffffffffffffffffffffffffffffffffff1673ffffffffffffffffffffffffffffffffffffffff1673ffffffffffffffffffffffffffffffffffffffff16815260200190815260200160002060009054906101000a900460ff1615611655576001820191505b60055482141561166a5760019250505061167a565b80806001019150506115a5565b50505b919050565b600080600090505b600480549050811015611744576002600084815260200190815260200160002060006004838154811015156116b857fe5b9060005260206000200160009054906101000a900473ffffffffffffffffffffffffffffffffffffffff1673ffffffffffffffffffffffffffffffffffffffff1673ffffffffffffffffffffffffffffffffffffffff16815260200190815260200160002060009054906101000a900460ff1615611737576001820191505b8080600101915050611687565b50919050565b60016020528060005260406000206000915090508060000160009054906101000a900473ffffffffffffffffffffffffffffffffffffffff1690806001015490806002018054600181600116156101000203166002900480601f0160208091040260200160405190810160405280929190818152602001828054600181600116156101000203166002900480156118225780601f106117f757610100808354040283529160200191611822565b820191906000526020600020905b81548152906001019060200180831161180557829003601f168201915b5050505050908060030160009054906101000a900460ff16905084565b606060048054806020026020016040519081016040528092919081815260200182805480156118c357602002820191906000526020600020905b8160009054906101000a900473ffffffffffffffffffffffffffffffffffffffff1673ffffffffffffffffffffffffffffffffffffffff1681526020019060010190808311611879575b5050505050905090565b6060806006546040519080825280602002602001820160405280156119015781602001602082028038833980820191505090505b509050600080905060008090505b6006548110156119b15785801561194757506001600082815260200190815260200160002060030160009054906101000a900460ff16155b8061197b575084801561197a57506001600082815260200190815260200160002060030160009054906101000a900460ff165b5b156119a45780838381518110151561198f57fe5b90602001906020020181815250506001820191505b808060010191505061190f565b8787036040519080825280602002602001820160405280156119e25781602001602082028038833980820191505090505b5093508790505b86811015611a345782818151811015156119ff57fe5b9060200190602002015184898303815181101515611a1957fe5b906020019060200201818152505080806001019150506119e9565b505050949350505050565b606080600480549050604051908082528060200260200182016040528015611a765781602001602082028038833980820191505090505b509050600080905060008090505b600480549050811015611bc557600260008681526020019081526020016000206000600483815481101515611ab557fe5b9060005260206000200160009054906101000a900473ffffffffffffffffffffffffffffffffffffffff1673ffffffffffffffffffffffffffffffffffffffff1673ffffffffffffffffffffffffffffffffffffffff16815260200190815260200160002060009054906101000a900460ff1615611bb857600481815481101515611b3c57fe5b9060005260206000200160009054906101000a900473ffffffffffffffffffffffffffffffffffffffff168383815181101515611b7557fe5b9060200190602002019073ffffffffffffffffffffffffffffffffffffffff16908173ffffffffffffffffffffffffffffffffffffffff16815250506001820191505b8080600101915050611a84565b81604051908082528060200260200182016040528015611bf45781602001602082028038833980820191505090505b509350600090505b81811015611c73578281815181101515611c1257fe5b906020019060200201518482815181101515611c2a57fe5b9060200190602002019073ffffffffffffffffffffffffffffffffffffffff16908173ffffffffffffffffffffffffffffffffffffffff16815250508080600101915050611bfc565b505050919050565b60065481565b3073ffffffffffffffffffffffffffffffffffffffff163373ffffffffffffffffffffffffffffffffffffffff16141515611d24576040517f08c379a00000000000000000000000000000000000000000000000000000000081526004018080602001828103825260148152602001807f4e6f7420612077616c6c6574206164647265737300000000000000000000000081525060200191505060405180910390fd5b60048054905081600054821180611d3a57508181115b80611d455750600081145b80611d505750600082145b15611dc3576040517f08c379a000000000000000000000000000000000000000000000000000000000815260040180806020018281038252601d8152602001807f526571756972656d656e742073686f756c64206265206368616e67656400000081525060200191505060405180910390fd5b826005819055507fa3f1ee9126a074d9326c682f561767f710e927faa811f7a99829d49dc421797a836040518082815260200191505060405180910390a1505050565b33600360008273ffffffffffffffffffffffffffffffffffffffff1673ffffffffffffffffffffffffffffffffffffffff16815260200190815260200160002060009054906101000a900460ff161515611ec8576040517f08c379a00000000000000000000000000000000000000000000000000000000081526004018080602001828103825260148152602001807f4f776e657220646f6573206e6f7420657869737400000000000000000000000081525060200191505060405180910390fd5b81600073ffffffffffffffffffffffffffffffffffffffff166001600083815260200190815260200160002060000160009054906101000a900473ffffffffffffffffffffffffffffffffffffffff1673ffffffffffffffffffffffffffffffffffffffff161415611fa2576040517f08c379a000000000000000000000000000000000000000000000000000000000815260040180806020018281038252601b8152602001807f5472616e73616374696f6e20646f6573206e6f7420657869737473000000000081525060200191505060405180910390fd5b82336002600083815260200190815260200160002060008273ffffffffffffffffffffffffffffffffffffffff1673ffffffffffffffffffffffffffffffffffffffff16815260200190815260200160002060009054906101000a900460ff161561209b576040517f08c379a000000000000000000000000000000000000000000000000000000000815260040180806020018281038252602b8152602001807f5472616e73616374696f6e20616c726561647920636f6e6669726d656420627981526020017f206d73672e73656e64657200000000000000000000000000000000000000000081525060400191505060405180910390fd5b60016002600087815260200190815260200160002060003373ffffffffffffffffffffffffffffffffffffffff1673ffffffffffffffffffffffffffffffffffffffff16815260200190815260200160002060006101000a81548160ff021916908315150217905550843373ffffffffffffffffffffffffffffffffffffffff167f4a504a94899432a9846e1aa406dceb1bcfd538bb839071d49d1e5e23f5be30ef60405160405180910390a3612151856125d0565b5050505050565b6000612165848484612824565b905061217081611e06565b9392505050565b60005481565b60055481565b3073ffffffffffffffffffffffffffffffffffffffff163373ffffffffffffffffffffffffffffffffffffffff16141515612226576040517f08c379a00000000000000000000000000000000000000000000000000000000081526004018080602001828103825260148152602001807f4e6f7420612077616c6c6574206164647265737300000000000000000000000081525060200191505060405180910390fd5b81600360008273ffffffffffffffffffffffffffffffffffffffff1673ffffffffffffffffffffffffffffffffffffffff16815260200190815260200160002060009054906101000a900460ff1615156122e8576040517f08c379a00000000000000000000000000000000000000000000000000000000081526004018080602001828103825260148152602001807f4f776e657220646f6573206e6f7420657869737400000000000000000000000081525060200191505060405180910390fd5b81600360008273ffffffffffffffffffffffffffffffffffffffff1673ffffffffffffffffffffffffffffffffffffffff16815260200190815260200160002060009054906101000a900460ff16156123a9576040517f08c379a000000000000000000000000000000000000000000000000000000000815260040180806020018281038252600c8152602001807f4f776e657220657869737473000000000000000000000000000000000000000081525060200191505060405180910390fd5b60008090505b600480549050811015612493578473ffffffffffffffffffffffffffffffffffffffff166004828154811015156123e257fe5b9060005260206000200160009054906101000a900473ffffffffffffffffffffffffffffffffffffffff1673ffffffffffffffffffffffffffffffffffffffff161415612486578360048281548110151561243957fe5b9060005260206000200160006101000a81548173ffffffffffffffffffffffffffffffffffffffff021916908373ffffffffffffffffffffffffffffffffffffffff160217905550612493565b80806001019150506123af565b506000600360008673ffffffffffffffffffffffffffffffffffffffff1673ffffffffffffffffffffffffffffffffffffffff16815260200190815260200160002060006101000a81548160ff0219169083151502179055506001600360008573ffffffffffffffffffffffffffffffffffffffff1673ffffffffffffffffffffffffffffffffffffffff16815260200190815260200160002060006101000a81548160ff0219169083151502179055508373ffffffffffffffffffffffffffffffffffffffff167f8001553a916ef2f495d26a907cc54d96ed840d7bda71e73194bf5a9df7a76b9060405160405180910390a28273ffffffffffffffffffffffffffffffffffffffff167ff39e6e1eb0edcf53c221607b54b00cd28f3196fed0a24994dc308b8f611b682d60405160405180910390a250505050565b806001600082815260200190815260200160002060030160009054906101000a900460ff1615612668576040517f08c379a000000000000000000000000000000000000000000000000000000000815260040180806020018281038252601d8152602001807f5472616e73616374696f6e20686173206265656e20657865637574656400000081525060200191505060405180910390fd5b61267182611598565b1561282057600060016000848152602001908152602001600020905060018160030160006101000a81548160ff021916908315150217905550600060608260000160009054906101000a900473ffffffffffffffffffffffffffffffffffffffff1673ffffffffffffffffffffffffffffffffffffffff16836001015484600201604051808280546001816001161561010002031660029004801561274d5780601f1061272b57610100808354040283529182019161274d565b820191906000526020600020905b815481529060010190602001808311612739575b505091505060006040518083038185875af1925050503d806000811461278f576040519150601f19603f3d011682016040523d82523d6000602084013e612794565b606091505b509150915081156127d157847f33e13ecb54c3076d8e8bb8c2881800a4d972b792045ffae98fdf46df365fed7560405160405180910390a261281c565b847f526441bb6c1aba3c9a4a6ca1d6545da9c2333c8c48343ef398eb858d72b7923660405160405180910390a260008360030160006101000a81548160ff0219169083151502179055505b5050505b5050565b600083600073ffffffffffffffffffffffffffffffffffffffff168173ffffffffffffffffffffffffffffffffffffffff1614156128ca576040517f08c379a00000000000000000000000000000000000000000000000000000000081526004018080602001828103825260158152602001807f4e756c6c2061646472657373207265636569766564000000000000000000000081525060200191505060405180910390fd5b60065491506080604051908101604052808673ffffffffffffffffffffffffffffffffffffffff168152602001858152602001848152602001600015158152506001600084815260200190815260200160002060008201518160000160006101000a81548173ffffffffffffffffffffffffffffffffffffffff021916908373ffffffffffffffffffffffffffffffffffffffff16021790555060208201518160010155604082015181600201908051906020019061298a929190612a20565b5060608201518160030160006101000a81548160ff0219169083151502179055509050506001600660008282540192505081905550817fc0ba8fe4b176c1714197d43b9cc6bcf797a4a7461c5fe8d0ef6e184ae7601e5160405160405180910390a2509392505050565b815481835581811115612a1b57818360005260206000209182019101612a1a9190612aa0565b5b505050565b828054600181600116156101000203166002900490600052602060002090601f016020900481019282601f10612a6157805160ff1916838001178555612a8f565b82800160010185558215612a8f579182015b82811115612a8e578251825591602001919060010190612a73565b5b509050612a9c9190612aa0565b5090565b612ac291905b80821115612abe576000816000905550600101612aa6565b5090565b9056fea165627a7a7230582009f268bacb4bf7583ecec0a24801fad21c812a273bf8eac1a373cd64bb4926070029",
  "source": "pragma solidity ^0.5.1;\n\n\n/// @title Multisignature wallet - Allows multiple parties to agree on transactions before execution.\n/// @author Stefan George - <stefan.george@consensys.net>\ncontract MultiSigWallet {\n\n    uint public MAX_OWNER_COUNT = 50;\n\n    event Confirmation(address indexed sender, uint indexed transactionId);\n    event Revocation(address indexed sender, uint indexed transactionId);\n    event Submission(uint indexed transactionId);\n    event Execution(uint indexed transactionId);\n    event ExecutionFailure(uint indexed transactionId);\n    event Deposit(address indexed sender, uint value);\n    event OwnerAddition(address indexed owner);\n    event OwnerRemoval(address indexed owner);\n    event RequirementChange(uint required);\n\n    mapping (uint => Transaction) public transactions;\n    mapping (uint => mapping (address => bool)) public confirmations;\n    mapping (address => bool) public isOwner;\n    address[] public owners;\n    uint public required;\n    uint public transactionCount;\n\n    struct Transaction {\n        address payable destination;\n        uint value;\n        bytes data;\n        bool executed;\n    }\n\n    modifier onlyWallet() {\n        if (msg.sender != address(this))\n            revert(\"Not a wallet address\");\n        _;\n    }\n\n    modifier ownerDoesNotExist(address owner) {\n        if (isOwner[owner])\n            revert(\"Owner exists\");\n        _;\n    }\n\n    modifier ownerExists(address owner) {\n        if (!isOwner[owner])\n            revert(\"Owner does not exist\");\n        _;\n    }\n\n    modifier transactionExists(uint transactionId) {\n        if (transactions[transactionId].destination == address(0))\n            revert(\"Transaction does not exists\");\n        _;\n    }\n\n    modifier confirmed(uint transactionId, address owner) {\n        if (!confirmations[transactionId][owner])\n            revert(\"Transaction not confirmed by msg.sender\");\n        _;\n    }\n\n    modifier notConfirmed(uint transactionId, address owner) {\n        if (confirmations[transactionId][owner])\n            revert(\"Transaction already confirmed by msg.sender\");\n        _;\n    }\n\n    modifier notExecuted(uint transactionId) {\n        if (transactions[transactionId].executed)\n            revert(\"Transaction has been executed\");\n        _;\n    }\n\n    modifier notNull(address _address) {\n        if (_address == address(0))\n            revert(\"Null address received\");\n       \n        _;\n    }\n\n    modifier validRequirement(uint ownerCount, uint _required) {\n        if (   ownerCount > MAX_OWNER_COUNT\n            || _required > ownerCount\n            || _required == 0\n            || ownerCount == 0)\n                revert(\"Requirement should be changed\");\n            \n            \n        _;\n    }\n    \n\n    /// @dev Fallback function allows to deposit ether.\n    function() external\n        payable\n    {\n        if (msg.value > 0)\n            emit Deposit(msg.sender, msg.value);\n    }\n\n    /*\n     * Public functions\n     */\n    /// @dev Contract constructor sets initial owners and required number of confirmations.\n    /// @param _owners List of initial owners.\n    /// @param _required Number of required confirmations.\n    constructor(address[] memory _owners, uint _required)\n            public\n        validRequirement(_owners.length, _required)\n    {\n            for (uint i = 0; i<_owners.length; i++) {\n            if (isOwner[_owners[i]] || _owners[i] == address(0))\n                revert(\"Owner address should not be zero address\");\n            isOwner[_owners[i]] = true;\n         }\n        owners = _owners;\n        required = _required;\n    }\n\n   \n\n    function msgsender() public view returns(address){\n        return msg.sender;\n    }\n    /// @dev Allows to add a new owner. Transaction has to be sent by wallet.\n    /// @param owner Address of new owner.\n    function addOwner(address owner)\n        public payable\n        onlyWallet\n        ownerDoesNotExist(owner)\n        notNull(owner)\n        validRequirement(owners.length + 1, required)\n    {\n        \n        isOwner[owner] = true;\n        owners.push(owner);\n        emit OwnerAddition(owner);\n    }\n\n    \n    /// @dev Allows to remove an owner. Transaction has to be sent by wallet.\n    /// @param owner Address of owner.\n    function removeOwner(address owner)\n        public\n        onlyWallet\n        ownerExists(owner)\n    {\n        isOwner[owner] = false;\n        for (uint i = 0; i<owners.length - 1; i++)\n            if (owners[i] == owner) {\n                owners[i] = owners[owners.length - 1];\n                break;\n            }\n        owners.length -= 1;\n        if (required > owners.length)\n            changeRequirement(owners.length);\n        emit OwnerRemoval(owner);\n    }\n\n    /// @dev Allows to replace an owner with a new owner. Transaction has to be sent by wallet.\n    /// @param owner Address of owner to be replaced.\n    /// @param owner Address of new owner.\n    function replaceOwner(address owner, address newOwner)\n        public\n       onlyWallet\n        ownerExists(owner)\n        ownerDoesNotExist(newOwner)\n    {\n        for (uint i = 0; i<owners.length; i++)\n            if (owners[i] == owner) {\n                owners[i] = newOwner;\n                break;\n            }\n        isOwner[owner] = false;\n        isOwner[newOwner] = true;\n        emit OwnerRemoval(owner);\n        emit OwnerAddition(newOwner);\n    }\n\n    /// @dev Allows to change the number of required confirmations. Transaction has to be sent by wallet.\n    /// @param _required Number of required confirmations.\n    function changeRequirement(uint _required)\n        public\n        onlyWallet\n        validRequirement(owners.length, _required)\n    {\n        required = _required;\n        emit RequirementChange(_required);\n    }\n\n    /// @dev Allows an owner to submit and confirm a transaction.\n    /// @param destination Transaction target address.\n    /// @param value Transaction ether value.\n    /// @param data Transaction data payload.\n    /// @return Returns transaction ID.\n    function submitTransaction(address payable destination, uint value, bytes memory data)\n        public\n        returns (uint transactionId)\n    {\n        transactionId = addTransaction(destination, value, data);\n        confirmTransaction(transactionId);\n    }\n\n    /// @dev Allows an owner to confirm a transaction.\n    /// @param transactionId Transaction ID.\n    function confirmTransaction(uint transactionId)\n        public\n        ownerExists(msg.sender)\n        transactionExists(transactionId)\n        notConfirmed(transactionId, msg.sender)\n    {\n        confirmations[transactionId][msg.sender] = true;\n        emit Confirmation(msg.sender, transactionId);\n        executeTransaction(transactionId);\n    }\n\n    /// @dev Allows an owner to revoke a confirmation for a transaction.\n    /// @param transactionId Transaction ID.\n    function revokeConfirmation(uint transactionId)\n        public\n        ownerExists(msg.sender)\n        confirmed(transactionId, msg.sender)\n        notExecuted(transactionId)\n    {\n        confirmations[transactionId][msg.sender] = false;\n        emit Revocation(msg.sender, transactionId);\n    }\n\n    /// @dev Allows anyone to execute a confirmed transaction.\n    /// @param transactionId Transaction ID.\n    function executeTransaction(uint transactionId)\n        public\n        notExecuted(transactionId)\n    {\n        if (isConfirmed(transactionId)) {\n            Transaction storage tx = transactions[transactionId];\n            tx.executed = true;\n            (bool success, bytes memory temp) = tx.destination.call.value(tx.value)(tx.data);\n             if (success)\n                emit Execution(transactionId);\n             else {\n                 emit ExecutionFailure(transactionId);\n                 tx.executed = false;\n             }\n        }\n    }\n\n    /// @dev Returns the confirmation status of a transaction.\n    /// @param transactionId Transaction ID.\n    /// @return Confirmation status.\n    function isConfirmed(uint transactionId)\n        public\n        view\n        returns (bool)\n    {\n        uint count = 0;\n        for (uint i = 0; i<owners.length; i++) {\n            if (confirmations[transactionId][owners[i]])\n                count += 1;\n            if (count == required)\n                return true;\n        }\n    }\n\n    /*\n     * Internal functions\n     */\n    /// @dev Adds a new transaction to the transaction mapping, if transaction does not exist yet.\n    /// @param destination Transaction target address.\n    /// @param value Transaction ether value.\n    /// @param data Transaction data payload.\n    /// @return Returns transaction ID.\n    function addTransaction(address payable destination, uint value, bytes memory  data)\n        internal\n        notNull(destination)\n        returns (uint transactionId)\n    {\n        transactionId = transactionCount;\n        transactions[transactionId] = Transaction({\n            destination: destination,\n            value: value,\n            data: data,\n            executed: false\n        });\n        transactionCount += 1;\n        emit Submission(transactionId);\n    }\n\n    /*\n     * Web3 call functions\n     */\n    /// @dev Returns number of confirmations of a transaction.\n    /// @param transactionId Transaction ID.\n    /// @return Number of confirmations.\n    function getConfirmationCount(uint transactionId)\n        public\n        view\n        returns (uint count)\n    {\n        for (uint i = 0; i<owners.length; i++)\n            if (confirmations[transactionId][owners[i]])\n                count += 1;\n    }\n\n    /// @dev Returns total number of transactions after filers are applied.\n    /// @param pending Include pending transactions.\n    /// @param executed Include executed transactions.\n    /// @return Total number of transactions after filters are applied.\n    function getTransactionCount(bool pending, bool executed)\n        public\n        view\n        returns (uint count)\n    {\n        for (uint i = 0; i<transactionCount; i++)\n            if (   pending && !transactions[i].executed\n                || executed && transactions[i].executed)\n                count += 1;\n    }\n\n    /// @dev Returns list of owners.\n    /// @return List of owner addresses.\n    function getOwners()\n        public\n        view\n        returns (address[] memory)\n    {\n        return owners;\n    }\n\n    /// @dev Returns array with owner addresses, which confirmed transaction.\n    /// @param transactionId Transaction ID.\n    /// @return Returns array of owner addresses.\n    function getConfirmations(uint transactionId)\n        public\n        view\n        returns (address[] memory _confirmations)\n    {\n        address[] memory confirmationsTemp = new address[](owners.length);\n        uint count = 0;\n        uint i;\n        for (i = 0; i<owners.length; i++)\n            if (confirmations[transactionId][owners[i]]) {\n                confirmationsTemp[count] = owners[i];\n                count += 1;\n            }\n        _confirmations = new address[](count);\n        for (i = 0; i<count; i++)\n            _confirmations[i] = confirmationsTemp[i];\n    }\n\n    /// @dev Returns list of transaction IDs in defined range.\n    /// @param from Index start position of transaction array.\n    /// @param to Index end position of transaction array.\n    /// @param pending Include pending transactions.\n    /// @param executed Include executed transactions.\n    /// @return Returns array of transaction IDs.\n    function getTransactionIds(uint from, uint to, bool pending, bool executed)\n        public\n        view\n        returns (uint[] memory _transactionIds)\n    {\n        uint[] memory transactionIdsTemp = new uint[](transactionCount);\n        uint count = 0;\n        uint i;\n        for (i = 0; i<transactionCount; i++)\n            if (   pending && !transactions[i].executed\n                || executed && transactions[i].executed)\n            {\n                transactionIdsTemp[count] = i;\n                count += 1;\n            }\n        _transactionIds = new uint[](to - from);\n        for (i = from; i<to; i++)\n            _transactionIds[i - from] = transactionIdsTemp[i];\n    }\n}\n\n\n",
  "sourcePath": "/home/noopur/Blockchain_Training/gnosis/contracts/MultiSigWallet.sol",
  "compiler": {
    "name": "solc",
    "version": "0.5.1+commit.c8a2cb62.Emscripten.clang"
  },
  "schemaVersion": "3.0.13",
  "updatedAt": "2019-10-01T16:53:14.428Z",
  "devdoc": {
    "author": "Stefan George - <stefan.george@consensys.net>",
    "methods": {
      "addOwner(address)": {
        "details": "Allows to add a new owner. Transaction has to be sent by wallet.",
        "params": {
          "owner": "Address of new owner."
        }
      },
      "changeRequirement(uint256)": {
        "details": "Allows to change the number of required confirmations. Transaction has to be sent by wallet.",
        "params": {
          "_required": "Number of required confirmations."
        }
      },
      "confirmTransaction(uint256)": {
        "details": "Allows an owner to confirm a transaction.",
        "params": {
          "transactionId": "Transaction ID."
        }
      },
      "constructor": {
        "details": "Contract constructor sets initial owners and required number of confirmations.",
        "params": {
          "_owners": "List of initial owners.",
          "_required": "Number of required confirmations."
        }
      },
      "executeTransaction(uint256)": {
        "details": "Allows anyone to execute a confirmed transaction.",
        "params": {
          "transactionId": "Transaction ID."
        }
      },
      "getConfirmationCount(uint256)": {
        "details": "Returns number of confirmations of a transaction.",
        "params": {
          "transactionId": "Transaction ID."
        },
        "return": "Number of confirmations."
      },
      "getConfirmations(uint256)": {
        "details": "Returns array with owner addresses, which confirmed transaction.",
        "params": {
          "transactionId": "Transaction ID."
        },
        "return": "Returns array of owner addresses."
      },
      "getOwners()": {
        "details": "Returns list of owners.",
        "return": "List of owner addresses."
      },
      "getTransactionCount(bool,bool)": {
        "details": "Returns total number of transactions after filers are applied.",
        "params": {
          "executed": "Include executed transactions.",
          "pending": "Include pending transactions."
        },
        "return": "Total number of transactions after filters are applied."
      },
      "getTransactionIds(uint256,uint256,bool,bool)": {
        "details": "Returns list of transaction IDs in defined range.",
        "params": {
          "executed": "Include executed transactions.",
          "from": "Index start position of transaction array.",
          "pending": "Include pending transactions.",
          "to": "Index end position of transaction array."
        },
        "return": "Returns array of transaction IDs."
      },
      "isConfirmed(uint256)": {
        "details": "Returns the confirmation status of a transaction.",
        "params": {
          "transactionId": "Transaction ID."
        },
        "return": "Confirmation status."
      },
      "removeOwner(address)": {
        "details": "Allows to remove an owner. Transaction has to be sent by wallet.",
        "params": {
          "owner": "Address of owner."
        }
      },
      "replaceOwner(address,address)": {
        "details": "Allows to replace an owner with a new owner. Transaction has to be sent by wallet.",
        "params": {
          "owner": "Address of new owner."
        }
      },
      "revokeConfirmation(uint256)": {
        "details": "Allows an owner to revoke a confirmation for a transaction.",
        "params": {
          "transactionId": "Transaction ID."
        }
      },
      "submitTransaction(address,uint256,bytes)": {
        "details": "Allows an owner to submit and confirm a transaction.",
        "params": {
          "data": "Transaction data payload.",
          "destination": "Transaction target address.",
          "value": "Transaction ether value."
        },
        "return": "Returns transaction ID."
      }
    },
    "title": "Multisignature wallet - Allows multiple parties to agree on transactions before execution."
  },
  "userdoc": {
    "methods": {}
  }
}