{
  "contractName": "Myerc721",
  "abi": [
    {
      "constant": true,
      "inputs": [
        {
          "name": "interfaceId",
          "type": "bytes4"
        }
      ],
      "name": "supportsInterface",
      "outputs": [
        {
          "name": "",
          "type": "bool"
        }
      ],
      "payable": false,
      "stateMutability": "view",
      "type": "function"
    },
    {
      "constant": true,
      "inputs": [],
      "name": "name",
      "outputs": [
        {
          "name": "",
          "type": "string"
        }
      ],
      "payable": false,
      "stateMutability": "view",
      "type": "function"
    },
    {
      "constant": true,
      "inputs": [
        {
          "name": "tokenId",
          "type": "uint256"
        }
      ],
      "name": "getApproved",
      "outputs": [
        {
          "name": "",
          "type": "address"
        }
      ],
      "payable": false,
      "stateMutability": "view",
      "type": "function"
    },
    {
      "constant": false,
      "inputs": [
        {
          "name": "to",
          "type": "address"
        },
        {
          "name": "tokenId",
          "type": "uint256"
        }
      ],
      "name": "approve",
      "outputs": [],
      "payable": false,
      "stateMutability": "nonpayable",
      "type": "function"
    },
    {
      "constant": false,
      "inputs": [
        {
          "name": "",
          "type": "address"
        },
        {
          "name": "",
          "type": "address"
        },
        {
          "name": "",
          "type": "uint256"
        },
        {
          "name": "",
          "type": "bytes"
        }
      ],
      "name": "onERC721Received",
      "outputs": [
        {
          "name": "",
          "type": "bytes4"
        }
      ],
      "payable": false,
      "stateMutability": "nonpayable",
      "type": "function"
    },
    {
      "constant": true,
      "inputs": [],
      "name": "totalSupply",
      "outputs": [
        {
          "name": "",
          "type": "uint256"
        }
      ],
      "payable": false,
      "stateMutability": "view",
      "type": "function"
    },
    {
      "constant": false,
      "inputs": [
        {
          "name": "from",
          "type": "address"
        },
        {
          "name": "to",
          "type": "address"
        },
        {
          "name": "tokenId",
          "type": "uint256"
        }
      ],
      "name": "transferFrom",
      "outputs": [],
      "payable": false,
      "stateMutability": "nonpayable",
      "type": "function"
    },
    {
      "constant": true,
      "inputs": [
        {
          "name": "owner",
          "type": "address"
        },
        {
          "name": "index",
          "type": "uint256"
        }
      ],
      "name": "tokenOfOwnerByIndex",
      "outputs": [
        {
          "name": "",
          "type": "uint256"
        }
      ],
      "payable": false,
      "stateMutability": "view",
      "type": "function"
    },
    {
      "constant": false,
      "inputs": [
        {
          "name": "from",
          "type": "address"
        },
        {
          "name": "to",
          "type": "address"
        },
        {
          "name": "tokenId",
          "type": "uint256"
        }
      ],
      "name": "safeTransferFrom",
      "outputs": [],
      "payable": false,
      "stateMutability": "nonpayable",
      "type": "function"
    },
    {
      "constant": false,
      "inputs": [
        {
          "name": "tokenId",
          "type": "uint256"
        }
      ],
      "name": "burn",
      "outputs": [],
      "payable": false,
      "stateMutability": "nonpayable",
      "type": "function"
    },
    {
      "constant": true,
      "inputs": [
        {
          "name": "index",
          "type": "uint256"
        }
      ],
      "name": "tokenByIndex",
      "outputs": [
        {
          "name": "",
          "type": "uint256"
        }
      ],
      "payable": false,
      "stateMutability": "view",
      "type": "function"
    },
    {
      "constant": true,
      "inputs": [
        {
          "name": "tokenId",
          "type": "uint256"
        }
      ],
      "name": "ownerOf",
      "outputs": [
        {
          "name": "",
          "type": "address"
        }
      ],
      "payable": false,
      "stateMutability": "view",
      "type": "function"
    },
    {
      "constant": true,
      "inputs": [
        {
          "name": "owner",
          "type": "address"
        }
      ],
      "name": "balanceOf",
      "outputs": [
        {
          "name": "",
          "type": "uint256"
        }
      ],
      "payable": false,
      "stateMutability": "view",
      "type": "function"
    },
    {
      "constant": true,
      "inputs": [],
      "name": "symbol",
      "outputs": [
        {
          "name": "",
          "type": "string"
        }
      ],
      "payable": false,
      "stateMutability": "view",
      "type": "function"
    },
    {
      "constant": false,
      "inputs": [
        {
          "name": "to",
          "type": "address"
        },
        {
          "name": "approved",
          "type": "bool"
        }
      ],
      "name": "setApprovalForAll",
      "outputs": [],
      "payable": false,
      "stateMutability": "nonpayable",
      "type": "function"
    },
    {
      "constant": false,
      "inputs": [
        {
          "name": "from",
          "type": "address"
        },
        {
          "name": "to",
          "type": "address"
        },
        {
          "name": "tokenId",
          "type": "uint256"
        },
        {
          "name": "_data",
          "type": "bytes"
        }
      ],
      "name": "safeTransferFrom",
      "outputs": [],
      "payable": false,
      "stateMutability": "nonpayable",
      "type": "function"
    },
    {
      "constant": true,
      "inputs": [
        {
          "name": "tokenId",
          "type": "uint256"
        }
      ],
      "name": "tokenURI",
      "outputs": [
        {
          "name": "",
          "type": "string"
        }
      ],
      "payable": false,
      "stateMutability": "view",
      "type": "function"
    },
    {
      "constant": true,
      "inputs": [
        {
          "name": "owner",
          "type": "address"
        },
        {
          "name": "operator",
          "type": "address"
        }
      ],
      "name": "isApprovedForAll",
      "outputs": [
        {
          "name": "",
          "type": "bool"
        }
      ],
      "payable": false,
      "stateMutability": "view",
      "type": "function"
    },
    {
      "inputs": [
        {
          "name": "_name",
          "type": "string"
        },
        {
          "name": "_symbol",
          "type": "string"
        }
      ],
      "payable": false,
      "stateMutability": "nonpayable",
      "type": "constructor"
    },
    {
      "anonymous": false,
      "inputs": [
        {
          "indexed": true,
          "name": "from",
          "type": "address"
        },
        {
          "indexed": true,
          "name": "to",
          "type": "address"
        },
        {
          "indexed": true,
          "name": "tokenId",
          "type": "uint256"
        }
      ],
      "name": "Transfer",
      "type": "event"
    },
    {
      "anonymous": false,
      "inputs": [
        {
          "indexed": true,
          "name": "owner",
          "type": "address"
        },
        {
          "indexed": true,
          "name": "approved",
          "type": "address"
        },
        {
          "indexed": true,
          "name": "tokenId",
          "type": "uint256"
        }
      ],
      "name": "Approval",
      "type": "event"
    },
    {
      "anonymous": false,
      "inputs": [
        {
          "indexed": true,
          "name": "owner",
          "type": "address"
        },
        {
          "indexed": true,
          "name": "operator",
          "type": "address"
        },
        {
          "indexed": false,
          "name": "approved",
          "type": "bool"
        }
      ],
      "name": "ApprovalForAll",
      "type": "event"
    },
    {
      "constant": false,
      "inputs": [
        {
          "name": "_to",
          "type": "address"
        },
        {
          "name": "_tokenId",
          "type": "uint256"
        },
        {
          "name": "_uri",
          "type": "string"
        }
      ],
      "name": "mintUniqueTokenTo",
      "outputs": [],
      "payable": false,
      "stateMutability": "nonpayable",
      "type": "function"
    },
    {
      "constant": false,
      "inputs": [
        {
          "name": "",
          "type": "address"
        }
      ],
      "name": "testtokensOfOwner",
      "outputs": [],
      "payable": false,
      "stateMutability": "nonpayable",
      "type": "function"
    },
    {
      "constant": false,
      "inputs": [
        {
          "name": "_interfaceId",
          "type": "bytes4"
        }
      ],
      "name": "testRegisterInterface",
      "outputs": [],
      "payable": false,
      "stateMutability": "nonpayable",
      "type": "function"
    },
    {
      "constant": false,
      "inputs": [
        {
          "name": "_owner",
          "type": "address"
        },
        {
          "name": "_tokenId",
          "type": "uint256"
        }
      ],
      "name": "testInternalBurn",
      "outputs": [],
      "payable": false,
      "stateMutability": "nonpayable",
      "type": "function"
    },
    {
      "constant": false,
      "inputs": [
        {
          "name": "_tokenId",
          "type": "uint256"
        },
        {
          "name": "_uri",
          "type": "string"
        }
      ],
      "name": "testSetTokenURI",
      "outputs": [],
      "payable": false,
      "stateMutability": "nonpayable",
      "type": "function"
    }
  ],
  "bytecode": "0x60806040523480156200001157600080fd5b506040516200353e3803806200353e833981018060405260408110156200003757600080fd5b8101908080516401000000008111156200005057600080fd5b828101905060208101848111156200006757600080fd5b81518560018202830111640100000000821117156200008557600080fd5b50509291906020018051640100000000811115620000a257600080fd5b82810190506020810184811115620000b957600080fd5b8151856001820283011164010000000082111715620000d757600080fd5b505092919050505081818181620001206301ffc9a77c01000000000000000000000000000000000000000000000000000000000262000215640100000000026401000000009004565b6200015d6380ac58cd7c01000000000000000000000000000000000000000000000000000000000262000215640100000000026401000000009004565b6200019a63780e9d637c01000000000000000000000000000000000000000000000000000000000262000215640100000000026401000000009004565b8160099080519060200190620001b29291906200033c565b5080600a9080519060200190620001cb9291906200033c565b5062000209635b5e139f7c01000000000000000000000000000000000000000000000000000000000262000215640100000000026401000000009004565b505050505050620003eb565b63ffffffff7c010000000000000000000000000000000000000000000000000000000002817bffffffffffffffffffffffffffffffffffffffffffffffffffffffff191614151515620002d0576040517f08c379a000000000000000000000000000000000000000000000000000000000815260040180806020018281038252601c8152602001807f4552433136353a20696e76616c696420696e746572666163652069640000000081525060200191505060405180910390fd5b6001600080837bffffffffffffffffffffffffffffffffffffffffffffffffffffffff19167bffffffffffffffffffffffffffffffffffffffffffffffffffffffff1916815260200190815260200160002060006101000a81548160ff02191690831515021790555050565b828054600181600116156101000203166002900490600052602060002090601f016020900481019282601f106200037f57805160ff1916838001178555620003b0565b82800160010185558215620003b0579182015b82811115620003af57825182559160200191906001019062000392565b5b509050620003bf9190620003c3565b5090565b620003e891905b80821115620003e4576000816000905550600101620003ca565b5090565b90565b61314380620003fb6000396000f3fe60806040526004361061012d576000357c0100000000000000000000000000000000000000000000000000000000900480630138ac531461013257806301ffc9a71461018c57806306fdde03146101fe578063081812fc1461028e578063095ea7b314610309578063150b7a021461036457806318160ddd146104c857806323b872dd146104f357806326dd860a1461056e5780632f745c591461066057806342842e0e146106cf57806342966c681461074a5780634f6ccce7146107855780636352211e146107d457806370a082311461084f5780637181745a146108b457806395d89b4114610905578063983b67b714610995578063a22cb465146109f0578063b88d4fde14610a4d578063c87b56dd14610b5f578063de020ea114610c13578063e985e9c514610ce5575b600080fd5b34801561013e57600080fd5b5061018a6004803603602081101561015557600080fd5b8101908080357bffffffffffffffffffffffffffffffffffffffffffffffffffffffff19169060200190929190505050610d6e565b005b34801561019857600080fd5b506101e4600480360360208110156101af57600080fd5b8101908080357bffffffffffffffffffffffffffffffffffffffffffffffffffffffff19169060200190929190505050610d7a565b604051808215151515815260200191505060405180910390f35b34801561020a57600080fd5b50610213610de1565b6040518080602001828103825283818151815260200191508051906020019080838360005b83811015610253578082015181840152602081019050610238565b50505050905090810190601f1680156102805780820380516001836020036101000a031916815260200191505b509250505060405180910390f35b34801561029a57600080fd5b506102c7600480360360208110156102b157600080fd5b8101908080359060200190929190505050610e83565b604051808273ffffffffffffffffffffffffffffffffffffffff1673ffffffffffffffffffffffffffffffffffffffff16815260200191505060405180910390f35b34801561031557600080fd5b506103626004803603604081101561032c57600080fd5b81019080803573ffffffffffffffffffffffffffffffffffffffff16906020019092919080359060200190929190505050610f63565b005b34801561037057600080fd5b506104746004803603608081101561038757600080fd5b81019080803573ffffffffffffffffffffffffffffffffffffffff169060200190929190803573ffffffffffffffffffffffffffffffffffffffff16906020019092919080359060200190929190803590602001906401000000008111156103ee57600080fd5b82018360208201111561040057600080fd5b8035906020019184600183028401116401000000008311171561042257600080fd5b91908080601f016020809104026020016040519081016040528093929190818152602001838380828437600081840152601f19601f8201169050808301925050505050505091929192905050506111c6565b60405180827bffffffffffffffffffffffffffffffffffffffffffffffffffffffff19167bffffffffffffffffffffffffffffffffffffffffffffffffffffffff1916815260200191505060405180910390f35b3480156104d457600080fd5b506104dd6111f6565b6040518082815260200191505060405180910390f35b3480156104ff57600080fd5b5061056c6004803603606081101561051657600080fd5b81019080803573ffffffffffffffffffffffffffffffffffffffff169060200190929190803573ffffffffffffffffffffffffffffffffffffffff16906020019092919080359060200190929190505050611203565b005b34801561057a57600080fd5b5061065e6004803603606081101561059157600080fd5b81019080803573ffffffffffffffffffffffffffffffffffffffff16906020019092919080359060200190929190803590602001906401000000008111156105d857600080fd5b8201836020820111156105ea57600080fd5b8035906020019184600183028401116401000000008311171561060c57600080fd5b91908080601f016020809104026020016040519081016040528093929190818152602001838380828437600081840152601f19601f8201169050808301925050505050505091929192905050506112b7565b005b34801561066c57600080fd5b506106b96004803603604081101561068357600080fd5b81019080803573ffffffffffffffffffffffffffffffffffffffff169060200190929190803590602001909291905050506112d0565b6040518082815260200191505060405180910390f35b3480156106db57600080fd5b50610748600480360360608110156106f257600080fd5b81019080803573ffffffffffffffffffffffffffffffffffffffff169060200190929190803573ffffffffffffffffffffffffffffffffffffffff169060200190929190803590602001909291905050506113d6565b005b34801561075657600080fd5b506107836004803603602081101561076d57600080fd5b81019080803590602001909291905050506113f7565b005b34801561079157600080fd5b506107be600480360360208110156107a857600080fd5b81019080803590602001909291905050506114a7565b6040518082815260200191505060405180910390f35b3480156107e057600080fd5b5061080d600480360360208110156107f757600080fd5b810190808035906020019092919050505061156e565b604051808273ffffffffffffffffffffffffffffffffffffffff1673ffffffffffffffffffffffffffffffffffffffff16815260200191505060405180910390f35b34801561085b57600080fd5b5061089e6004803603602081101561087257600080fd5b81019080803573ffffffffffffffffffffffffffffffffffffffff16906020019092919050505061167b565b6040518082815260200191505060405180910390f35b3480156108c057600080fd5b50610903600480360360208110156108d757600080fd5b81019080803573ffffffffffffffffffffffffffffffffffffffff169060200190929190505050611795565b005b34801561091157600080fd5b5061091a61180b565b6040518080602001828103825283818151815260200191508051906020019080838360005b8381101561095a57808201518184015260208101905061093f565b50505050905090810190601f1680156109875780820380516001836020036101000a031916815260200191505b509250505060405180910390f35b3480156109a157600080fd5b506109ee600480360360408110156109b857600080fd5b81019080803573ffffffffffffffffffffffffffffffffffffffff169060200190929190803590602001909291905050506118ad565b005b3480156109fc57600080fd5b50610a4b60048036036040811015610a1357600080fd5b81019080803573ffffffffffffffffffffffffffffffffffffffff1690602001909291908035151590602001909291905050506118bb565b005b348015610a5957600080fd5b50610b5d60048036036080811015610a7057600080fd5b81019080803573ffffffffffffffffffffffffffffffffffffffff169060200190929190803573ffffffffffffffffffffffffffffffffffffffff1690602001909291908035906020019092919080359060200190640100000000811115610ad757600080fd5b820183602082011115610ae957600080fd5b80359060200191846001830284011164010000000083111715610b0b57600080fd5b91908080601f016020809104026020016040519081016040528093929190818152602001838380828437600081840152601f19601f820116905080830192505050505050509192919290505050611a60565b005b348015610b6b57600080fd5b50610b9860048036036020811015610b8257600080fd5b8101908080359060200190929190505050611b17565b6040518080602001828103825283818151815260200191508051906020019080838360005b83811015610bd8578082015181840152602081019050610bbd565b50505050905090810190601f168015610c055780820380516001836020036101000a031916815260200191505b509250505060405180910390f35b348015610c1f57600080fd5b50610ce360048036036040811015610c3657600080fd5b810190808035906020019092919080359060200190640100000000811115610c5d57600080fd5b820183602082011115610c6f57600080fd5b80359060200191846001830284011164010000000083111715610c9157600080fd5b91908080601f016020809104026020016040519081016040528093929190818152602001838380828437600081840152601f19601f820116905080830192505050505050509192919290505050611c6f565b005b348015610cf157600080fd5b50610d5460048036036040811015610d0857600080fd5b81019080803573ffffffffffffffffffffffffffffffffffffffff169060200190929190803573ffffffffffffffffffffffffffffffffffffffff169060200190929190505050611c7d565b604051808215151515815260200191505060405180910390f35b610d7781611d11565b50565b6000806000837bffffffffffffffffffffffffffffffffffffffffffffffffffffffff19167bffffffffffffffffffffffffffffffffffffffffffffffffffffffff1916815260200190815260200160002060009054906101000a900460ff169050919050565b606060098054600181600116156101000203166002900480601f016020809104026020016040519081016040528092919081815260200182805460018160011615610100020316600290048015610e795780601f10610e4e57610100808354040283529160200191610e79565b820191906000526020600020905b815481529060010190602001808311610e5c57829003601f168201915b5050505050905090565b6000610e8e82611e37565b1515610f28576040517f08c379a000000000000000000000000000000000000000000000000000000000815260040180806020018281038252602c8152602001807f4552433732313a20617070726f76656420717565727920666f72206e6f6e657881526020017f697374656e7420746f6b656e000000000000000000000000000000000000000081525060400191505060405180910390fd5b6002600083815260200190815260200160002060009054906101000a900473ffffffffffffffffffffffffffffffffffffffff169050919050565b6000610f6e8261156e565b90508073ffffffffffffffffffffffffffffffffffffffff168373ffffffffffffffffffffffffffffffffffffffff161415151561103a576040517f08c379a00000000000000000000000000000000000000000000000000000000081526004018080602001828103825260218152602001807f4552433732313a20617070726f76616c20746f2063757272656e74206f776e6581526020017f720000000000000000000000000000000000000000000000000000000000000081525060400191505060405180910390fd5b8073ffffffffffffffffffffffffffffffffffffffff163373ffffffffffffffffffffffffffffffffffffffff16148061107a57506110798133611c7d565b5b1515611114576040517f08c379a00000000000000000000000000000000000000000000000000000000081526004018080602001828103825260388152602001807f4552433732313a20617070726f76652063616c6c6572206973206e6f74206f7781526020017f6e6572206e6f7220617070726f76656420666f7220616c6c000000000000000081525060400191505060405180910390fd5b826002600084815260200190815260200160002060006101000a81548173ffffffffffffffffffffffffffffffffffffffff021916908373ffffffffffffffffffffffffffffffffffffffff160217905550818373ffffffffffffffffffffffffffffffffffffffff168273ffffffffffffffffffffffffffffffffffffffff167f8c5be1e5ebec7d5bd14f71427d1e84f3dd0314c0f7b2291e5b200ac8c7c3b92560405160405180910390a4505050565b600063150b7a027c0100000000000000000000000000000000000000000000000000000000029050949350505050565b6000600780549050905090565b61120d3382611ea9565b15156112a7576040517f08c379a00000000000000000000000000000000000000000000000000000000081526004018080602001828103825260318152602001807f4552433732313a207472616e736665722063616c6c6572206973206e6f74206f81526020017f776e6572206e6f7220617070726f76656400000000000000000000000000000081525060400191505060405180910390fd5b6112b2838383611fe2565b505050565b6112c18383612006565b6112cb8282612027565b505050565b60006112db8361167b565b82101515611377576040517f08c379a000000000000000000000000000000000000000000000000000000000815260040180806020018281038252602b8152602001807f455243373231456e756d657261626c653a206f776e657220696e646578206f7581526020017f74206f6620626f756e647300000000000000000000000000000000000000000081525060400191505060405180910390fd5b600560008473ffffffffffffffffffffffffffffffffffffffff1673ffffffffffffffffffffffffffffffffffffffff168152602001908152602001600020828154811015156113c357fe5b9060005260206000200154905092915050565b6113f28383836020604051908101604052806000815250611a60565b505050565b6114013382611ea9565b151561149b576040517f08c379a00000000000000000000000000000000000000000000000000000000081526004018080602001828103825260308152602001807f4552433732314275726e61626c653a2063616c6c6572206973206e6f74206f7781526020017f6e6572206e6f7220617070726f7665640000000000000000000000000000000081525060400191505060405180910390fd5b6114a4816120f6565b50565b60006114b16111f6565b8210151561154d576040517f08c379a000000000000000000000000000000000000000000000000000000000815260040180806020018281038252602c8152602001807f455243373231456e756d657261626c653a20676c6f62616c20696e646578206f81526020017f7574206f6620626f756e6473000000000000000000000000000000000000000081525060400191505060405180910390fd5b60078281548110151561155c57fe5b90600052602060002001549050919050565b6000806001600084815260200190815260200160002060009054906101000a900473ffffffffffffffffffffffffffffffffffffffff169050600073ffffffffffffffffffffffffffffffffffffffff168173ffffffffffffffffffffffffffffffffffffffff1614151515611672576040517f08c379a00000000000000000000000000000000000000000000000000000000081526004018080602001828103825260298152602001807f4552433732313a206f776e657220717565727920666f72206e6f6e657869737481526020017f656e7420746f6b656e000000000000000000000000000000000000000000000081525060400191505060405180910390fd5b80915050919050565b60008073ffffffffffffffffffffffffffffffffffffffff168273ffffffffffffffffffffffffffffffffffffffff1614151515611747576040517f08c379a000000000000000000000000000000000000000000000000000000000815260040180806020018281038252602a8152602001807f4552433732313a2062616c616e636520717565727920666f7220746865207a6581526020017f726f20616464726573730000000000000000000000000000000000000000000081525060400191505060405180910390fd5b61178e600360008473ffffffffffffffffffffffffffffffffffffffff1673ffffffffffffffffffffffffffffffffffffffff16815260200190815260200160002061210b565b9050919050565b6117ea738d142af19a2c90a861d36ac95caf859aa0160ca8600a6040805190810160405280600a81526020017f44656d6f20746f6b656e000000000000000000000000000000000000000000008152506112b7565b611807738d142af19a2c90a861d36ac95caf859aa0160ca8612119565b5050565b6060600a8054600181600116156101000203166002900480601f0160208091040260200160405190810160405280929190818152602001828054600181600116156101000203166002900480156118a35780601f10611878576101008083540402835291602001916118a3565b820191906000526020600020905b81548152906001019060200180831161188657829003601f168201915b5050505050905090565b6118b78282612161565b5050565b3373ffffffffffffffffffffffffffffffffffffffff168273ffffffffffffffffffffffffffffffffffffffff161415151561195f576040517f08c379a00000000000000000000000000000000000000000000000000000000081526004018080602001828103825260198152602001807f4552433732313a20617070726f766520746f2063616c6c65720000000000000081525060200191505060405180910390fd5b80600460003373ffffffffffffffffffffffffffffffffffffffff1673ffffffffffffffffffffffffffffffffffffffff16815260200190815260200160002060008473ffffffffffffffffffffffffffffffffffffffff1673ffffffffffffffffffffffffffffffffffffffff16815260200190815260200160002060006101000a81548160ff0219169083151502179055508173ffffffffffffffffffffffffffffffffffffffff163373ffffffffffffffffffffffffffffffffffffffff167f17307eab39ab6107e8899845ad3d59bd9653f200f220920489ca2b5937696c3183604051808215151515815260200191505060405180910390a35050565b611a6b848484611203565b611a77848484846121c0565b1515611b11576040517f08c379a00000000000000000000000000000000000000000000000000000000081526004018080602001828103825260328152602001807f4552433732313a207472616e7366657220746f206e6f6e20455243373231526581526020017f63656976657220696d706c656d656e746572000000000000000000000000000081525060400191505060405180910390fd5b50505050565b6060611b2282611e37565b1515611bbc576040517f08c379a000000000000000000000000000000000000000000000000000000000815260040180806020018281038252602f8152602001807f4552433732314d657461646174613a2055524920717565727920666f72206e6f81526020017f6e6578697374656e7420746f6b656e000000000000000000000000000000000081525060400191505060405180910390fd5b600b60008381526020019081526020016000208054600181600116156101000203166002900480601f016020809104026020016040519081016040528092919081815260200182805460018160011615610100020316600290048015611c635780601f10611c3857610100808354040283529160200191611c63565b820191906000526020600020905b815481529060010190602001808311611c4657829003601f168201915b50505050509050919050565b611c798282612027565b5050565b6000600460008473ffffffffffffffffffffffffffffffffffffffff1673ffffffffffffffffffffffffffffffffffffffff16815260200190815260200160002060008373ffffffffffffffffffffffffffffffffffffffff1673ffffffffffffffffffffffffffffffffffffffff16815260200190815260200160002060009054906101000a900460ff16905092915050565b63ffffffff7c010000000000000000000000000000000000000000000000000000000002817bffffffffffffffffffffffffffffffffffffffffffffffffffffffff191614151515611dcb576040517f08c379a000000000000000000000000000000000000000000000000000000000815260040180806020018281038252601c8152602001807f4552433136353a20696e76616c696420696e746572666163652069640000000081525060200191505060405180910390fd5b6001600080837bffffffffffffffffffffffffffffffffffffffffffffffffffffffff19167bffffffffffffffffffffffffffffffffffffffffffffffffffffffff1916815260200190815260200160002060006101000a81548160ff02191690831515021790555050565b6000806001600084815260200190815260200160002060009054906101000a900473ffffffffffffffffffffffffffffffffffffffff169050600073ffffffffffffffffffffffffffffffffffffffff168173ffffffffffffffffffffffffffffffffffffffff161415915050919050565b6000611eb482611e37565b1515611f4e576040517f08c379a000000000000000000000000000000000000000000000000000000000815260040180806020018281038252602c8152602001807f4552433732313a206f70657261746f7220717565727920666f72206e6f6e657881526020017f697374656e7420746f6b656e000000000000000000000000000000000000000081525060400191505060405180910390fd5b6000611f598361156e565b90508073ffffffffffffffffffffffffffffffffffffffff168473ffffffffffffffffffffffffffffffffffffffff161480611fc857508373ffffffffffffffffffffffffffffffffffffffff16611fb084610e83565b73ffffffffffffffffffffffffffffffffffffffff16145b80611fd95750611fd88185611c7d565b5b91505092915050565b611fed8383836123e3565b611ff783826126c8565b612001828261286c565b505050565b6120108282612933565b61201a828261286c565b61202381612b4f565b5050565b61203082611e37565b15156120ca576040517f08c379a000000000000000000000000000000000000000000000000000000000815260040180806020018281038252602c8152602001807f4552433732314d657461646174613a2055524920736574206f66206e6f6e657881526020017f697374656e7420746f6b656e000000000000000000000000000000000000000081525060400191505060405180910390fd5b80600b600084815260200190815260200160002090805190602001906120f1929190612ffe565b505050565b6121086121028261156e565b82612161565b50565b600081600001549050919050565b6000600560008373ffffffffffffffffffffffffffffffffffffffff1673ffffffffffffffffffffffffffffffffffffffff1681526020019081526020016000209050919050565b61216b8282612b9b565b6000600b60008381526020019081526020016000208054600181600116156101000203166002900490501415156121bc57600b600082815260200190815260200160002060006121bb919061307e565b5b5050565b60006121e18473ffffffffffffffffffffffffffffffffffffffff16612bd5565b15156121f057600190506123db565b60008473ffffffffffffffffffffffffffffffffffffffff1663150b7a02338887876040518563ffffffff167c0100000000000000000000000000000000000000000000000000000000028152600401808573ffffffffffffffffffffffffffffffffffffffff1673ffffffffffffffffffffffffffffffffffffffff1681526020018473ffffffffffffffffffffffffffffffffffffffff1673ffffffffffffffffffffffffffffffffffffffff16815260200183815260200180602001828103825283818151815260200191508051906020019080838360005b838110156122e75780820151818401526020810190506122cc565b50505050905090810190601f1680156123145780820380516001836020036101000a031916815260200191505b5095505050505050602060405180830381600087803b15801561233657600080fd5b505af115801561234a573d6000803e3d6000fd5b505050506040513d602081101561236057600080fd5b8101908080519060200190929190505050905063150b7a027c0100000000000000000000000000000000000000000000000000000000027bffffffffffffffffffffffffffffffffffffffffffffffffffffffff1916817bffffffffffffffffffffffffffffffffffffffffffffffffffffffff1916149150505b949350505050565b8273ffffffffffffffffffffffffffffffffffffffff166124038261156e565b73ffffffffffffffffffffffffffffffffffffffff161415156124b4576040517f08c379a00000000000000000000000000000000000000000000000000000000081526004018080602001828103825260298152602001807f4552433732313a207472616e73666572206f6620746f6b656e2074686174206981526020017f73206e6f74206f776e000000000000000000000000000000000000000000000081525060400191505060405180910390fd5b600073ffffffffffffffffffffffffffffffffffffffff168273ffffffffffffffffffffffffffffffffffffffff161415151561257f576040517f08c379a00000000000000000000000000000000000000000000000000000000081526004018080602001828103825260248152602001807f4552433732313a207472616e7366657220746f20746865207a65726f2061646481526020017f726573730000000000000000000000000000000000000000000000000000000081525060400191505060405180910390fd5b61258881612be8565b6125cf600360008573ffffffffffffffffffffffffffffffffffffffff1673ffffffffffffffffffffffffffffffffffffffff168152602001908152602001600020612ca8565b612616600360008473ffffffffffffffffffffffffffffffffffffffff1673ffffffffffffffffffffffffffffffffffffffff168152602001908152602001600020612ccb565b816001600083815260200190815260200160002060006101000a81548173ffffffffffffffffffffffffffffffffffffffff021916908373ffffffffffffffffffffffffffffffffffffffff160217905550808273ffffffffffffffffffffffffffffffffffffffff168473ffffffffffffffffffffffffffffffffffffffff167fddf252ad1be2c89b69c2b068fc378daa952ba7f163c4a11628f55a4df523b3ef60405160405180910390a4505050565b60006127206001600560008673ffffffffffffffffffffffffffffffffffffffff1673ffffffffffffffffffffffffffffffffffffffff16815260200190815260200160002080549050612ce190919063ffffffff16565b90506000600660008481526020019081526020016000205490508181141515612813576000600560008673ffffffffffffffffffffffffffffffffffffffff1673ffffffffffffffffffffffffffffffffffffffff1681526020019081526020016000208381548110151561279157fe5b9060005260206000200154905080600560008773ffffffffffffffffffffffffffffffffffffffff1673ffffffffffffffffffffffffffffffffffffffff168152602001908152602001600020838154811015156127eb57fe5b9060005260206000200181905550816006600083815260200190815260200160002081905550505b600560008573ffffffffffffffffffffffffffffffffffffffff1673ffffffffffffffffffffffffffffffffffffffff16815260200190815260200160002080548091906001900361286591906130c6565b5050505050565b600560008373ffffffffffffffffffffffffffffffffffffffff1673ffffffffffffffffffffffffffffffffffffffff168152602001908152602001600020805490506006600083815260200190815260200160002081905550600560008373ffffffffffffffffffffffffffffffffffffffff1673ffffffffffffffffffffffffffffffffffffffff1681526020019081526020016000208190806001815401808255809150509060018203906000526020600020016000909192909190915055505050565b600073ffffffffffffffffffffffffffffffffffffffff168273ffffffffffffffffffffffffffffffffffffffff16141515156129d8576040517f08c379a00000000000000000000000000000000000000000000000000000000081526004018080602001828103825260208152602001807f4552433732313a206d696e7420746f20746865207a65726f206164647265737381525060200191505060405180910390fd5b6129e181611e37565b151515612a56576040517f08c379a000000000000000000000000000000000000000000000000000000000815260040180806020018281038252601c8152602001807f4552433732313a20746f6b656e20616c7265616479206d696e7465640000000081525060200191505060405180910390fd5b816001600083815260200190815260200160002060006101000a81548173ffffffffffffffffffffffffffffffffffffffff021916908373ffffffffffffffffffffffffffffffffffffffff160217905550612aef600360008473ffffffffffffffffffffffffffffffffffffffff1673ffffffffffffffffffffffffffffffffffffffff168152602001908152602001600020612ccb565b808273ffffffffffffffffffffffffffffffffffffffff16600073ffffffffffffffffffffffffffffffffffffffff167fddf252ad1be2c89b69c2b068fc378daa952ba7f163c4a11628f55a4df523b3ef60405160405180910390a45050565b6007805490506008600083815260200190815260200160002081905550600781908060018154018082558091505090600182039060005260206000200160009091929091909150555050565b612ba58282612d6c565b612baf82826126c8565b60006006600083815260200190815260200160002081905550612bd181612f40565b5050565b600080823b905060008111915050919050565b600073ffffffffffffffffffffffffffffffffffffffff166002600083815260200190815260200160002060009054906101000a900473ffffffffffffffffffffffffffffffffffffffff1673ffffffffffffffffffffffffffffffffffffffff16141515612ca55760006002600083815260200190815260200160002060006101000a81548173ffffffffffffffffffffffffffffffffffffffff021916908373ffffffffffffffffffffffffffffffffffffffff1602179055505b50565b612cc060018260000154612ce190919063ffffffff16565b816000018190555050565b6001816000016000828254019250508190555050565b6000828211151515612d5b576040517f08c379a000000000000000000000000000000000000000000000000000000000815260040180806020018281038252601e8152602001807f536166654d6174683a207375627472616374696f6e206f766572666c6f77000081525060200191505060405180910390fd5b600082840390508091505092915050565b8173ffffffffffffffffffffffffffffffffffffffff16612d8c8261156e565b73ffffffffffffffffffffffffffffffffffffffff16141515612e3d576040517f08c379a00000000000000000000000000000000000000000000000000000000081526004018080602001828103825260258152602001807f4552433732313a206275726e206f6620746f6b656e2074686174206973206e6f81526020017f74206f776e00000000000000000000000000000000000000000000000000000081525060400191505060405180910390fd5b612e4681612be8565b612e8d600360008473ffffffffffffffffffffffffffffffffffffffff1673ffffffffffffffffffffffffffffffffffffffff168152602001908152602001600020612ca8565b60006001600083815260200190815260200160002060006101000a81548173ffffffffffffffffffffffffffffffffffffffff021916908373ffffffffffffffffffffffffffffffffffffffff16021790555080600073ffffffffffffffffffffffffffffffffffffffff168373ffffffffffffffffffffffffffffffffffffffff167fddf252ad1be2c89b69c2b068fc378daa952ba7f163c4a11628f55a4df523b3ef60405160405180910390a45050565b6000612f5b6001600780549050612ce190919063ffffffff16565b90506000600860008481526020019081526020016000205490506000600783815481101515612f8657fe5b9060005260206000200154905080600783815481101515612fa357fe5b90600052602060002001819055508160086000838152602001908152602001600020819055506007805480919060019003612fde91906130c6565b506000600860008681526020019081526020016000208190555050505050565b828054600181600116156101000203166002900490600052602060002090601f016020900481019282601f1061303f57805160ff191683800117855561306d565b8280016001018555821561306d579182015b8281111561306c578251825591602001919060010190613051565b5b50905061307a91906130f2565b5090565b50805460018160011615610100020316600290046000825580601f106130a457506130c3565b601f0160209004906000526020600020908101906130c291906130f2565b5b50565b8154818355818111156130ed578183600052602060002091820191016130ec91906130f2565b5b505050565b61311491905b808211156131105760008160009055506001016130f8565b5090565b9056fea165627a7a72305820b6bd685fb669e92d3882a758ea0cfeb50f5e2d55e448d4a605da098c91fb806c0029",
  "source": "pragma solidity ^0.5.0;\n\nimport \"./debug/ERC721Full.sol\";\nimport \"./debug/ERC721Burnable.sol\";\nimport \"./debug/ERC721Holder.sol\";\nimport \"./testContract_V1.sol\";\nimport \"./testContract.sol\";\n\ncontract Myerc721 is ERC721Full, ERC721Burnable, ERC721Holder, testContract_V1, testContract{\n    \n     constructor (string memory _name, string memory _symbol) public\n        ERC721Full(_name, _symbol) \n    {\n        \n    }\n\n    function mintUniqueTokenTo(\n        address _to,\n        uint256 _tokenId,\n        string memory _uri\n       \n    ) public\n    {\n        _mint(_to, _tokenId);\n        _setTokenURI(_tokenId, _uri);\n    }\n\n    function testtokensOfOwner(address) public{\n        mintUniqueTokenTo(0x8D142AF19a2c90A861d36aC95cAf859aA0160Ca8, 10, \"Demo token\");\n        _tokensOfOwner(0x8D142AF19a2c90A861d36aC95cAf859aA0160Ca8);\n    }\n\n    function testRegisterInterface(bytes4 _interfaceId) public{\n        _registerInterface(_interfaceId);\n    }\n\n    function testInternalBurn(address _owner, uint _tokenId) public{\n        _burn(_owner, _tokenId);\n    }\n\n    function testSetTokenURI(uint _tokenId, string memory _uri) public{\n        _setTokenURI(_tokenId, _uri);\n        \n    }\n\n}",
  "sourcePath": "/home/noopur/Blockchain_Training/ERC721/contracts/Myerc721.sol",
  "compiler": {
    "name": "solc",
    "version": "0.5.1+commit.c8a2cb62.Emscripten.clang"
  },
  "schemaVersion": "3.0.13",
  "updatedAt": "2019-09-20T08:59:40.216Z",
  "devdoc": {
    "methods": {
      "approve(address,uint256)": {
        "details": "Approves another address to transfer the given token ID The zero address indicates there is no approved address. There can only be one approved address per token at a given time. Can only be called by the token owner or an approved operator.",
        "params": {
          "to": "address to be approved for the given token ID",
          "tokenId": "uint256 ID of the token to be approved"
        }
      },
      "balanceOf(address)": {
        "details": "Gets the balance of the specified address.",
        "params": {
          "owner": "address to query the balance of"
        },
        "return": "uint256 representing the amount owned by the passed address"
      },
      "burn(uint256)": {
        "details": "Burns a specific ERC721 token.",
        "params": {
          "tokenId": "uint256 id of the ERC721 token to be burned."
        }
      },
      "getApproved(uint256)": {
        "details": "Gets the approved address for a token ID, or zero if no address set Reverts if the token ID does not exist.",
        "params": {
          "tokenId": "uint256 ID of the token to query the approval of"
        },
        "return": "address currently approved for the given token ID"
      },
      "isApprovedForAll(address,address)": {
        "details": "Tells whether an operator is approved by a given owner.",
        "params": {
          "operator": "operator address which you want to query the approval of",
          "owner": "owner address which you want to query the approval of"
        },
        "return": "bool whether the given operator is approved by the given owner"
      },
      "name()": {
        "details": "Gets the token name.",
        "return": "string representing the token name"
      },
      "ownerOf(uint256)": {
        "details": "Gets the owner of the specified token ID.",
        "params": {
          "tokenId": "uint256 ID of the token to query the owner of"
        },
        "return": "address currently marked as the owner of the given token ID"
      },
      "safeTransferFrom(address,address,uint256)": {
        "details": "Safely transfers the ownership of a given token ID to another address If the target address is a contract, it must implement `onERC721Received`, which is called upon a safe transfer, and return the magic value `bytes4(keccak256(\"onERC721Received(address,address,uint256,bytes)\"))`; otherwise, the transfer is reverted. Requires the msg.sender to be the owner, approved, or operator",
        "params": {
          "from": "current owner of the token",
          "to": "address to receive the ownership of the given token ID",
          "tokenId": "uint256 ID of the token to be transferred"
        }
      },
      "safeTransferFrom(address,address,uint256,bytes)": {
        "details": "Safely transfers the ownership of a given token ID to another address If the target address is a contract, it must implement `onERC721Received`, which is called upon a safe transfer, and return the magic value `bytes4(keccak256(\"onERC721Received(address,address,uint256,bytes)\"))`; otherwise, the transfer is reverted. Requires the msg.sender to be the owner, approved, or operator",
        "params": {
          "_data": "bytes data to send along with a safe transfer check",
          "from": "current owner of the token",
          "to": "address to receive the ownership of the given token ID",
          "tokenId": "uint256 ID of the token to be transferred"
        }
      },
      "setApprovalForAll(address,bool)": {
        "details": "Sets or unsets the approval of a given operator An operator is allowed to transfer all tokens of the sender on their behalf.",
        "params": {
          "approved": "representing the status of the approval to be set",
          "to": "operator address to set the approval"
        }
      },
      "supportsInterface(bytes4)": {
        "details": "See `IERC165.supportsInterface`.     * Time complexity O(1), guaranteed to always use less than 30 000 gas."
      },
      "symbol()": {
        "details": "Gets the token symbol.",
        "return": "string representing the token symbol"
      },
      "tokenByIndex(uint256)": {
        "details": "Gets the token ID at a given index of all the tokens in this contract Reverts if the index is greater or equal to the total number of tokens.",
        "params": {
          "index": "uint256 representing the index to be accessed of the tokens list"
        },
        "return": "uint256 token ID at the given index of the tokens list"
      },
      "tokenOfOwnerByIndex(address,uint256)": {
        "details": "Gets the token ID at a given index of the tokens list of the requested owner.",
        "params": {
          "index": "uint256 representing the index to be accessed of the requested tokens list",
          "owner": "address owning the tokens list to be accessed"
        },
        "return": "uint256 token ID at the given index of the tokens list owned by the requested address"
      },
      "tokenURI(uint256)": {
        "details": "Returns an URI for a given token ID. Throws if the token ID does not exist. May return an empty string.",
        "params": {
          "tokenId": "uint256 ID of the token to query"
        }
      },
      "totalSupply()": {
        "details": "Gets the total amount of tokens stored by the contract.",
        "return": "uint256 representing the total amount of tokens"
      },
      "transferFrom(address,address,uint256)": {
        "details": "Transfers the ownership of a given token ID to another address. Usage of this method is discouraged, use `safeTransferFrom` whenever possible. Requires the msg.sender to be the owner, approved, or operator.",
        "params": {
          "from": "current owner of the token",
          "to": "address to receive the ownership of the given token ID",
          "tokenId": "uint256 ID of the token to be transferred"
        }
      }
    }
  },
  "userdoc": {
    "methods": {}
  }
}